{"abi":[{"type":"constructor","inputs":[],"stateMutability":"nonpayable"},{"type":"function","name":"addAdmin","inputs":[{"name":"a","type":"address","internalType":"address"}],"outputs":[],"stateMutability":"nonpayable"},{"type":"function","name":"baseEigenAgent","inputs":[],"outputs":[{"name":"","type":"address","internalType":"address"}],"stateMutability":"view"},{"type":"function","name":"eigenAgentOwner721","inputs":[],"outputs":[{"name":"","type":"address","internalType":"contract IEigenAgentOwner721"}],"stateMutability":"view"},{"type":"function","name":"erc6551Registry","inputs":[],"outputs":[{"name":"","type":"address","internalType":"contract IERC6551Registry"}],"stateMutability":"view"},{"type":"function","name":"getEigenAgent","inputs":[{"name":"user","type":"address","internalType":"address"}],"outputs":[{"name":"","type":"address","internalType":"contract IEigenAgent6551"}],"stateMutability":"view"},{"type":"function","name":"getEigenAgentOwnerTokenId","inputs":[{"name":"user","type":"address","internalType":"address"}],"outputs":[{"name":"","type":"uint256","internalType":"uint256"}],"stateMutability":"view"},{"type":"function","name":"getRestakingConnector","inputs":[],"outputs":[{"name":"","type":"address","internalType":"address"}],"stateMutability":"view"},{"type":"function","name":"initialize","inputs":[{"name":"_erc6551Registry","type":"address","internalType":"contract IERC6551Registry"},{"name":"_eigenAgentOwner721","type":"address","internalType":"contract IEigenAgentOwner721"},{"name":"_baseEigenAgent","type":"address","internalType":"address"}],"outputs":[],"stateMutability":"nonpayable"},{"type":"function","name":"isAdmin","inputs":[{"name":"a","type":"address","internalType":"address"}],"outputs":[{"name":"","type":"bool","internalType":"bool"}],"stateMutability":"view"},{"type":"function","name":"owner","inputs":[],"outputs":[{"name":"","type":"address","internalType":"address"}],"stateMutability":"view"},{"type":"function","name":"predictEigenAgentAddress","inputs":[{"name":"user","type":"address","internalType":"address"},{"name":"userTokenIdNonce","type":"uint256","internalType":"uint256"}],"outputs":[{"name":"","type":"address","internalType":"address"}],"stateMutability":"view"},{"type":"function","name":"removeAdmin","inputs":[{"name":"a","type":"address","internalType":"address"}],"outputs":[],"stateMutability":"nonpayable"},{"type":"function","name":"renounceOwnership","inputs":[],"outputs":[],"stateMutability":"nonpayable"},{"type":"function","name":"set6551Registry","inputs":[{"name":"new6551Registry","type":"address","internalType":"contract IERC6551Registry"}],"outputs":[],"stateMutability":"nonpayable"},{"type":"function","name":"setEigenAgentOwner721","inputs":[{"name":"newEigenAgentOwner721","type":"address","internalType":"contract IEigenAgentOwner721"}],"outputs":[],"stateMutability":"nonpayable"},{"type":"function","name":"setRestakingConnector","inputs":[{"name":"newRestakingConnector","type":"address","internalType":"address"}],"outputs":[],"stateMutability":"nonpayable"},{"type":"function","name":"spawnEigenAgentOnlyOwner","inputs":[{"name":"user","type":"address","internalType":"address"}],"outputs":[{"name":"","type":"address","internalType":"contract IEigenAgent6551"}],"stateMutability":"nonpayable"},{"type":"function","name":"tokenIdToEigenAgents","inputs":[{"name":"","type":"uint256","internalType":"uint256"}],"outputs":[{"name":"","type":"address","internalType":"address"}],"stateMutability":"view"},{"type":"function","name":"transferOwnership","inputs":[{"name":"newOwner","type":"address","internalType":"address"}],"outputs":[],"stateMutability":"nonpayable"},{"type":"function","name":"tryGetEigenAgentOrSpawn","inputs":[{"name":"user","type":"address","internalType":"address"}],"outputs":[{"name":"","type":"address","internalType":"contract IEigenAgent6551"}],"stateMutability":"nonpayable"},{"type":"function","name":"updateEigenAgentOwnerTokenId","inputs":[{"name":"from","type":"address","internalType":"address"},{"name":"to","type":"address","internalType":"address"},{"name":"tokenId","type":"uint256","internalType":"uint256"}],"outputs":[],"stateMutability":"nonpayable"},{"type":"function","name":"userToEigenAgentTokenIds","inputs":[{"name":"","type":"address","internalType":"address"}],"outputs":[{"name":"","type":"uint256","internalType":"uint256"}],"stateMutability":"view"},{"type":"event","name":"AgentCreated","inputs":[{"name":"owner","type":"address","indexed":true,"internalType":"address"},{"name":"eigenAgent","type":"address","indexed":true,"internalType":"address"},{"name":"tokenId","type":"uint256","indexed":true,"internalType":"uint256"}],"anonymous":false},{"type":"event","name":"EigenAgentOwnerUpdated","inputs":[{"name":"","type":"address","indexed":true,"internalType":"address"},{"name":"","type":"address","indexed":true,"internalType":"address"},{"name":"","type":"uint256","indexed":true,"internalType":"uint256"}],"anonymous":false},{"type":"event","name":"Initialized","inputs":[{"name":"version","type":"uint64","indexed":false,"internalType":"uint64"}],"anonymous":false},{"type":"event","name":"OwnershipTransferred","inputs":[{"name":"previousOwner","type":"address","indexed":true,"internalType":"address"},{"name":"newOwner","type":"address","indexed":true,"internalType":"address"}],"anonymous":false},{"type":"event","name":"Set6551Registry","inputs":[{"name":"","type":"address","indexed":true,"internalType":"contract IERC6551Registry"}],"anonymous":false},{"type":"event","name":"SetEigenAgentOwner721","inputs":[{"name":"","type":"address","indexed":true,"internalType":"contract IEigenAgentOwner721"}],"anonymous":false},{"type":"event","name":"SetRestakingConnector","inputs":[{"name":"","type":"address","indexed":true,"internalType":"address"}],"anonymous":false},{"type":"error","name":"AddressZero","inputs":[{"name":"msg","type":"string","internalType":"string"}]},{"type":"error","name":"ERC1167FailedCreateClone","inputs":[]},{"type":"error","name":"InvalidInitialization","inputs":[]},{"type":"error","name":"NotInitializing","inputs":[]},{"type":"error","name":"OwnableInvalidOwner","inputs":[{"name":"owner","type":"address","internalType":"address"}]},{"type":"error","name":"OwnableUnauthorizedAccount","inputs":[{"name":"account","type":"address","internalType":"address"}]},{"type":"error","name":"ReentrancyGuardReentrantCall","inputs":[]}],"bytecode":{"object":"0x6080604052348015600e575f5ffd5b5060156019565b60c9565b7ff0c57e16840df040f15088dc2f81fe391c3923bec73e23a9662efc9c229c6a00805468010000000000000000900460ff161560685760405163f92ee8a960e01b815260040160405180910390fd5b80546001600160401b039081161460c65780546001600160401b0319166001600160401b0390811782556040519081527fc7f505b2f371ae2175ee4913f4499e1f2633a7b5936321eed1cdaeb6115181d29060200160405180910390a15b50565b61150c806100d65f395ff3fe608060405234801561000f575f5ffd5b506004361061013d575f3560e01c8063715018a6116100b4578063d0567e7a11610079578063d0567e7a1461030b578063d2aee8331461031c578063d7dfe4341461032f578063eb06853614610342578063f2fde38b14610355578063f4c4922e14610368575f5ffd5b8063715018a6146102b65780638da5cb5b146102be5780639262560c146102c6578063b2d5c150146102e5578063c0c53b8b146102f8575f5ffd5b806328e68c5c1161010557806328e68c5c1461021f57806329b02b9a146102325780632decd7de146102455780635ccd8842146102585780636ab2eb971461029057806370480275146102a3575f5ffd5b8063056d5afe1461014157806306fb472f14610171578063119aaa02146101995780631785f53c146101cf57806324d7806c146101e4575b5f5ffd5b600154610154906001600160a01b031681565b6040516001600160a01b0390911681526020015b60405180910390f35b61015461017f36600461137b565b60066020525f90815260409020546001600160a01b031681565b6101c16101a73660046113a6565b6001600160a01b03165f9081526005602052604090205490565b604051908152602001610168565b6101e26101dd3660046113a6565b61037b565b005b61020f6101f23660046113a6565b6001600160a01b03165f9081526020819052604090205460ff1690565b6040519015158152602001610168565b6101e261022d3660046113a6565b6103a3565b6101e26102403660046113a6565b6104ae565b6101e26102533660046113a6565b6105a5565b6101546102663660046113a6565b6001600160a01b039081165f90815260056020908152604080832054835260069091529020541690565b61015461029e3660046113a6565b6106a7565b6101e26102b13660046113a6565b61075f565b6101e261078a565b61015461079d565b6101c16102d43660046113a6565b60056020525f908152604090205481565b6101e26102f33660046113c8565b6107cb565b6101e2610306366004611406565b6108bb565b6004546001600160a01b0316610154565b600254610154906001600160a01b031681565b61015461033d3660046113a6565b610b3f565b600354610154906001600160a01b031681565b6101e26103633660046113a6565b610b8a565b61015461037636600461144e565b610bc7565b610383610d6e565b6001600160a01b03165f908152602081905260409020805460ff19169055565b335f9081526020819052604090205460ff16806103c357506103c3610da0565b6103e85760405162461bcd60e51b81526004016103df90611478565b60405180910390fd5b6001600160a01b0381166104655760405163c5dbe6e760e01b815260206004820152603860248201527f4167656e74466163746f72792e73657452657374616b696e67436f6e6e65637460448201527f6f723a2063616e6e6f742062652061646472657373283029000000000000000060648201526084016103df565b600480546001600160a01b0319166001600160a01b0383169081179091556040517f3d5940225f6cb761464db7ccc2a46f2ceb3e258778ee367ec2a664b2391825fc905f90a250565b335f9081526020819052604090205460ff16806104ce57506104ce610da0565b6104ea5760405162461bcd60e51b81526004016103df90611478565b6001600160a01b03811661055c5760405163c5dbe6e760e01b815260206004820152603260248201527f4167656e74466163746f72792e7365743635353152656769737472793a2063616044820152716e6e6f74206265206164647265737328302960701b60648201526084016103df565b600180546001600160a01b0319166001600160a01b0383169081179091556040517f6dbe326f92ee8c525dd74b21211fec1c0fe9f17442be91ea50ed74924a69e756905f90a250565b335f9081526020819052604090205460ff16806105c557506105c5610da0565b6105e15760405162461bcd60e51b81526004016103df90611478565b6001600160a01b03811661065e5760405163c5dbe6e760e01b815260206004820152603860248201527f4167656e74466163746f72792e736574456967656e4167656e744f776e65723760448201527f32313a2063616e6e6f742062652061646472657373283029000000000000000060648201526084016103df565b600280546001600160a01b0319166001600160a01b0383169081179091556040517f6d4535d5a461241d7b10957392ae2c18424e84f2980aa020c30c32a3168966a9905f90a250565b6004545f906001600160a01b0316331461071a5760405162461bcd60e51b815260206004820152602e60248201527f4167656e74466163746f72793a206e6f742063616c6c6564206279205265737460448201526d30b5b4b733a1b7b73732b1ba37b960911b60648201526084016103df565b6001600160a01b038281165f908152600560209081526040808320548352600690915290205416801561074d5792915050565b61075683610db9565b9150505b919050565b610767610d6e565b6001600160a01b03165f908152602081905260409020805460ff19166001179055565b610792610d6e565b61079b5f6110a9565b565b7f9016d09d72d40fdae2fd8ceac6b6234c7706214fd39c1cd1e609a0528c199300546001600160a01b031690565b6002546001600160a01b031633146108655760405162461bcd60e51b815260206004820152605160248201527f4167656e74466163746f72792e757064617465456967656e4167656e744f776e60448201527f6572546f6b656e49643a2063616c6c6572206e6f7420456967656e4167656e7460648201527013dddb995c8dcc8c4818dbdb9d1c9858dd607a1b608482015260a4016103df565b6001600160a01b038084165f818152600560205260408082208290559285168082528382208590559251849392917f44a4e2eded1f864ef2d987a30fe7d700a3b4717e8af7db8bc2a57c77454a08c291a4505050565b7ff0c57e16840df040f15088dc2f81fe391c3923bec73e23a9662efc9c229c6a008054600160401b810460ff16159067ffffffffffffffff165f811580156109005750825b90505f8267ffffffffffffffff16600114801561091c5750303b155b90508115801561092a575080155b156109485760405163f92ee8a960e01b815260040160405180910390fd5b845467ffffffffffffffff19166001178555831561097257845460ff60401b1916600160401b1785555b6001600160a01b0388166109d75760405163c5dbe6e760e01b815260206004820152602560248201527f5f6572633635353152656769737472792063616e6e6f74206265206164647265604482015264737328302960d81b60648201526084016103df565b6001600160a01b038716610a3f5760405163c5dbe6e760e01b815260206004820152602860248201527f5f656967656e4167656e744f776e65723732312063616e6e6f74206265206164604482015267647265737328302960c01b60648201526084016103df565b6001600160a01b038616610aa25760405163c5dbe6e760e01b8152602060048201526024808201527f5f62617365456967656e4167656e742063616e6e6f74206265206164647265736044820152637328302960e01b60648201526084016103df565b600180546001600160a01b03808b166001600160a01b031992831617909255600280548a84169083161790556003805492891692909116919091179055610ae7611119565b610aef611226565b8315610b3557845460ff60401b19168555604051600181527fc7f505b2f371ae2175ee4913f4499e1f2633a7b5936321eed1cdaeb6115181d29060200160405180910390a15b5050505050505050565b335f9081526020819052604081205460ff1680610b5f5750610b5f610da0565b610b7b5760405162461bcd60e51b81526004016103df90611478565b610b8482610db9565b92915050565b610b92610d6e565b6001600160a01b038116610bbb57604051631e4fbdf760e01b81525f60048201526024016103df565b610bc4816110a9565b50565b600254604051637dacb18960e01b81526001600160a01b038481166004830152602482018490525f928392911690637dacb18990604401602060405180830381865afa158015610c19573d5f5f3e3d5ffd5b505050506040513d601f19601f82011682018060405250810190610c3d91906114a4565b90505f81604051602001610c5391815260200190565b60408051808303601f190181529082905280516020909101206001546003543060388501526f5af43d82803e903d91602b57fd5bf3ff60248501526001600160a01b039081166014850152733d602d80600a3d3981f3363d3d373d3d3d363d738452605884018390526037600c85012060788501526055604390940193909320919350919091169063246a00219060025460405160e084901b6001600160e01b03191681526001600160a01b03928316600482015260248101869052466044820152911660648201526084810185905260a401602060405180830381865afa158015610d41573d5f5f3e3d5ffd5b505050506040513d601f19601f82011682018060405250810190610d6591906114bb565b95945050505050565b33610d7761079d565b6001600160a01b03161461079b5760405163118cdaa760e01b81523360048201526024016103df565b5f33610daa61079d565b6001600160a01b031614905090565b5f610dc2611236565b6002546040516370a0823160e01b81526001600160a01b038481166004830152909116906370a0823190602401602060405180830381865afa158015610e0a573d5f5f3e3d5ffd5b505050506040513d601f19601f82011682018060405250810190610e2e91906114a4565b15610e7b5760405162461bcd60e51b815260206004820152601e60248201527f5573657220616c72656164792068617320616e20456967656e4167656e74000060448201526064016103df565b6002546040516335313c2160e11b81526001600160a01b0384811660048301525f921690636a627842906024016020604051808303815f875af1158015610ec4573d5f5f3e3d5ffd5b505050506040513d601f19601f82011682018060405250810190610ee891906114a4565b90505f81604051602001610efe91815260200190565b60408051601f1981840301815291905280516020909101206001546003549192505f916001600160a01b0391821691638a54c52f91610f3e911685611280565b60025460405160e084901b6001600160e01b03191681526001600160a01b03928316600482015260248101879052466044820152911660648201526084810186905260a4016020604051808303815f875af1158015610f9f573d5f5f3e3d5ffd5b505050506040513d601f19601f82011682018060405250810190610fc391906114bb565b60048054604051633f41b79760e21b81526001600160a01b03918216928101929092529192509082169063fd06de5c906024015f604051808303815f87803b15801561100d575f5ffd5b505af115801561101f573d5f5f3e3d5ffd5b5050505f8481526006602052604080822080546001600160a01b0319166001600160a01b0386811691821790925591518794509192908916917fff45e9abee0ca7927d6ff677917548de76b160a53697e8060443aeb1c8924a3f9190a49250505061075a60017f9b779b17422d0df92223018b32b4d1fa46e071723d6817e2486d003becc55f0055565b7f9016d09d72d40fdae2fd8ceac6b6234c7706214fd39c1cd1e609a0528c19930080546001600160a01b031981166001600160a01b03848116918217845560405192169182907f8be0079c531659141344cd1fd0a4f28419497f9722a3daafe3b4186f6b6457e0905f90a3505050565b7ff0c57e16840df040f15088dc2f81fe391c3923bec73e23a9662efc9c229c6a008054600160401b810460ff16159067ffffffffffffffff165f8115801561115e5750825b90505f8267ffffffffffffffff16600114801561117a5750303b155b905081158015611188575080155b156111a65760405163f92ee8a960e01b815260040160405180910390fd5b845467ffffffffffffffff1916600117855583156111d057845460ff60401b1916600160401b1785555b6111d933611311565b831561121f57845460ff60401b19168555604051600181527fc7f505b2f371ae2175ee4913f4499e1f2633a7b5936321eed1cdaeb6115181d29060200160405180910390a15b5050505050565b61122e611322565b61079b61136b565b7f9b779b17422d0df92223018b32b4d1fa46e071723d6817e2486d003becc55f0080546001190161127a57604051633ee5aeb560e01b815260040160405180910390fd5b60029055565b5f763d602d80600a3d3981f3363d3d373d3d3d363d730000008360601b60e81c175f526e5af43d82803e903d91602b57fd5bf38360781b1760205281603760095ff590506001600160a01b038116610b84576040516330be1a3d60e21b815260040160405180910390fd5b60017f9b779b17422d0df92223018b32b4d1fa46e071723d6817e2486d003becc55f0055565b611319611322565b610bc481611373565b7ff0c57e16840df040f15088dc2f81fe391c3923bec73e23a9662efc9c229c6a0054600160401b900460ff1661079b57604051631afcd79f60e31b815260040160405180910390fd5b6112eb611322565b610b92611322565b5f6020828403121561138b575f5ffd5b5035919050565b6001600160a01b0381168114610bc4575f5ffd5b5f602082840312156113b6575f5ffd5b81356113c181611392565b9392505050565b5f5f5f606084860312156113da575f5ffd5b83356113e581611392565b925060208401356113f581611392565b929592945050506040919091013590565b5f5f5f60608486031215611418575f5ffd5b833561142381611392565b9250602084013561143381611392565b9150604084013561144381611392565b809150509250925092565b5f5f6040838503121561145f575f5ffd5b823561146a81611392565b946020939093013593505050565b6020808252601290820152712737ba1030b236b4b71037b91037bbb732b960711b604082015260600190565b5f602082840312156114b4575f5ffd5b5051919050565b5f602082840312156114cb575f5ffd5b81516113c18161139256fea2646970667358221220a6c9387c91e743a2c5518e5342a7b3ae28453db9ee893ef9dd86d4cdce61a3b564736f6c634300081c0033","linkReferences":{}},"methodIdentifiers":{"addAdmin(address)":"70480275","baseEigenAgent()":"eb068536","eigenAgentOwner721()":"d2aee833","erc6551Registry()":"056d5afe","getEigenAgent(address)":"5ccd8842","getEigenAgentOwnerTokenId(address)":"119aaa02","getRestakingConnector()":"d0567e7a","initialize(address,address,address)":"c0c53b8b","isAdmin(address)":"24d7806c","owner()":"8da5cb5b","predictEigenAgentAddress(address,uint256)":"f4c4922e","removeAdmin(address)":"1785f53c","renounceOwnership()":"715018a6","set6551Registry(address)":"29b02b9a","setEigenAgentOwner721(address)":"2decd7de","setRestakingConnector(address)":"28e68c5c","spawnEigenAgentOnlyOwner(address)":"d7dfe434","tokenIdToEigenAgents(uint256)":"06fb472f","transferOwnership(address)":"f2fde38b","tryGetEigenAgentOrSpawn(address)":"6ab2eb97","updateEigenAgentOwnerTokenId(address,address,uint256)":"b2d5c150","userToEigenAgentTokenIds(address)":"9262560c"},"id":191}