{"abi":[{"type":"receive","stateMutability":"payable"},{"type":"function","name":"EIGEN_AGENT_EXEC_TYPEHASH","inputs":[],"outputs":[{"name":"","type":"bytes32","internalType":"bytes32"}],"stateMutability":"view"},{"type":"function","name":"TREASURE_RESTAKING_VERSION","inputs":[],"outputs":[{"name":"","type":"string","internalType":"string"}],"stateMutability":"view"},{"type":"function","name":"approveByWhitelistedContract","inputs":[{"name":"spenderContract","type":"address","internalType":"address"},{"name":"token","type":"address","internalType":"address"},{"name":"amount","type":"uint256","internalType":"uint256"}],"outputs":[],"stateMutability":"nonpayable"},{"type":"function","name":"createEigenAgentCallDigestHash","inputs":[{"name":"target","type":"address","internalType":"address"},{"name":"value","type":"uint256","internalType":"uint256"},{"name":"data","type":"bytes","internalType":"bytes"},{"name":"nonce","type":"uint256","internalType":"uint256"},{"name":"chainid","type":"uint256","internalType":"uint256"},{"name":"expiry","type":"uint256","internalType":"uint256"}],"outputs":[{"name":"","type":"bytes32","internalType":"bytes32"}],"stateMutability":"view"},{"type":"function","name":"domainSeparatorEigenAgent","inputs":[{"name":"chainid","type":"uint256","internalType":"uint256"}],"outputs":[{"name":"","type":"bytes32","internalType":"bytes32"}],"stateMutability":"view"},{"type":"function","name":"execNonce","inputs":[],"outputs":[{"name":"","type":"uint256","internalType":"uint256"}],"stateMutability":"view"},{"type":"function","name":"execute","inputs":[{"name":"to","type":"address","internalType":"address"},{"name":"value","type":"uint256","internalType":"uint256"},{"name":"data","type":"bytes","internalType":"bytes"},{"name":"operation","type":"uint8","internalType":"uint8"}],"outputs":[{"name":"result","type":"bytes","internalType":"bytes"}],"stateMutability":"payable"},{"type":"function","name":"executeWithSignature","inputs":[{"name":"targetContract","type":"address","internalType":"address"},{"name":"value","type":"uint256","internalType":"uint256"},{"name":"data","type":"bytes","internalType":"bytes"},{"name":"expiry","type":"uint256","internalType":"uint256"},{"name":"signature","type":"bytes","internalType":"bytes"}],"outputs":[{"name":"result","type":"bytes","internalType":"bytes"}],"stateMutability":"payable"},{"type":"function","name":"isValidSignature","inputs":[{"name":"digestHash","type":"bytes32","internalType":"bytes32"},{"name":"signature","type":"bytes","internalType":"bytes"}],"outputs":[{"name":"","type":"bytes4","internalType":"bytes4"}],"stateMutability":"view"},{"type":"function","name":"isValidSigner","inputs":[{"name":"signer","type":"address","internalType":"address"},{"name":"","type":"bytes","internalType":"bytes"}],"outputs":[{"name":"","type":"bytes4","internalType":"bytes4"}],"stateMutability":"view"},{"type":"function","name":"owner","inputs":[],"outputs":[{"name":"","type":"address","internalType":"address"}],"stateMutability":"view"},{"type":"function","name":"restakingConnector","inputs":[],"outputs":[{"name":"","type":"address","internalType":"address"}],"stateMutability":"view"},{"type":"function","name":"setInitialRestakingConnector","inputs":[{"name":"_restakingConnector","type":"address","internalType":"address"}],"outputs":[],"stateMutability":"nonpayable"},{"type":"function","name":"state","inputs":[],"outputs":[{"name":"","type":"uint256","internalType":"uint256"}],"stateMutability":"view"},{"type":"function","name":"supportsInterface","inputs":[{"name":"interfaceId","type":"bytes4","internalType":"bytes4"}],"outputs":[{"name":"","type":"bool","internalType":"bool"}],"stateMutability":"pure"},{"type":"function","name":"token","inputs":[],"outputs":[{"name":"","type":"uint256","internalType":"uint256"},{"name":"","type":"address","internalType":"address"},{"name":"","type":"uint256","internalType":"uint256"}],"stateMutability":"view"},{"type":"event","name":"ExecutedSignedCall","inputs":[{"name":"targetContract","type":"address","indexed":true,"internalType":"address"},{"name":"success","type":"bool","indexed":true,"internalType":"bool"},{"name":"result","type":"bytes","indexed":true,"internalType":"bytes"}],"anonymous":false},{"type":"event","name":"SignatureInvalidEvent","inputs":[{"name":"digestHash","type":"bytes32","indexed":true,"internalType":"bytes32"},{"name":"signature","type":"bytes","indexed":false,"internalType":"bytes"}],"anonymous":false},{"type":"error","name":"AddressEmptyCode","inputs":[{"name":"target","type":"address","internalType":"address"}]},{"type":"error","name":"AddressInsufficientBalance","inputs":[{"name":"account","type":"address","internalType":"address"}]},{"type":"error","name":"AddressZero","inputs":[{"name":"reason","type":"string","internalType":"string"}]},{"type":"error","name":"CallerNotWhitelisted","inputs":[{"name":"reason","type":"string","internalType":"string"}]},{"type":"error","name":"FailedInnerCall","inputs":[]},{"type":"error","name":"RestakingConnectorAlreadyInitialized","inputs":[]},{"type":"error","name":"SafeERC20FailedOperation","inputs":[{"name":"token","type":"address","internalType":"address"}]},{"type":"error","name":"SignatureInvalid","inputs":[{"name":"reason","type":"string","internalType":"string"}]}],"bytecode":{"object":"0x6080604052348015600e575f5ffd5b506116048061001c5f395ff3fe6080604052600436106100f2575f3560e01c80638da5cb5b11610087578063cb7537f511610057578063cb7537f5146102ca578063d5f42320146102eb578063fc0c546a14610300578063fd06de5c14610337575f5ffd5b80638da5cb5b14610252578063b8cecf9d14610266578063c19d93fb14610297578063c6eb5f9f146102ab575f5ffd5b806351945447116100c257806351945447146101b6578063523e3260146101c95780637468ba9f146101e85780637b50d0451461021b575f5ffd5b806301ffc9a7146100fd5780630993d763146101315780631626ba7e146101515780633f99487714610189575f5ffd5b366100f957005b5f5ffd5b348015610108575f5ffd5b5061011c6101173660046110f2565b610356565b60405190151581526020015b60405180910390f35b61014461013f366004611211565b6103a7565b60405161012891906112cc565b34801561015c575f5ffd5b5061017061016b3660046112de565b6105ef565b6040516001600160e01b03199091168152602001610128565b348015610194575f5ffd5b506101a86101a3366004611322565b610624565b604051908152602001610128565b6101446101c4366004611339565b610715565b3480156101d4575f5ffd5b506101706101e33660046113ad565b610844565b3480156101f3575f5ffd5b506101a87fc2fe14b6b0762bbe0af05e32c1508917360acb035e861274912c58b9c2806cb881565b348015610226575f5ffd5b5060025461023a906001600160a01b031681565b6040516001600160a01b039091168152602001610128565b34801561025d575f5ffd5b5061023a610864565b348015610271575f5ffd5b5061014460405180604001604052806006815260200165076312e302e360d41b81525081565b3480156102a2575f5ffd5b506101a85f5481565b3480156102b6575f5ffd5b506101a86102c53660046113fe565b6108f5565b3480156102d5575f5ffd5b506102e96102e436600461146f565b6109dc565b005b3480156102f6575f5ffd5b506101a860015481565b34801561030b575f5ffd5b50610314610aca565b604080519384526001600160a01b03909216602084015290820152606001610128565b348015610342575f5ffd5b506102e96103513660046114ad565b610b1c565b5f6001600160e01b031982166301ffc9a760e01b148061038657506001600160e01b03198216636faff5f160e01b145b806103a157506001600160e01b03198216635194544760e01b145b92915050565b6002546060906001600160a01b03163314806103db57506103c6610864565b6001600160a01b0316336001600160a01b0316145b6104415760405162461bcd60e51b815260206004820152602c60248201527f4f6e6c792052657374616b696e67436f6e6e6563746f72206f72206f776e657260448201526b2063616e206578656375746560a01b60648201526084015b60405180910390fd5b5f61045388888888600154468a6108f5565b9050630b135d3f60e11b61046782856105ef565b6001600160e01b0319161461051357807ff8ab265451acf26078f0b8cca88d6d125dac25659deb7818442b897ee295187f846040516104a691906112cc565b60405180910390a26040516356b159f560e11b815260206004820152603360248201527f496e76616c6964207369676e65722c206f7220696e636f72726563742064696760448201527232b9ba2430b9b4103830b930b6b2ba32b9399760691b6064820152608401610438565b60015f8154610521906114c8565b919050819055505f886001600160a01b03168888886040516105449291906114ec565b5f6040518083038185875af1925050503d805f811461057e576040519150601f19603f3d011682016040523d82523d5f602084013e610583565b606091505b506040519094509091506105989084906114fb565b60405190819003812090821515906001600160a01b038c16907fb9b1a28f839fbca7d1045202aaceac55554360ae4ef26e011d363339b37493ae905f90a4806105e357825160208401fd5b50509695505050505050565b5f5f6105f9610864565b9050610606818585610bd2565b1561061b5750630b135d3f60e11b90506103a1565b505f9392505050565b604080518082018252600a815269115a59d95b9059d95b9d60b21b602091820152815180830183526006815265076312e302e360d41b818301526021908101518351603b60f91b818501526001600160f81b031990911691810191909152825160028183030181526022820184528051908301207f8b73c3c69bb8fe3d512ecc4cf759cc79239f7b179b0ffacaa9a75d522b39400f60428301527f2efc49d4adf37aa7391561a787f71884f98b0e062658e846b76189f5d0d99ad86062830152608282015260a28101939093523060c2808501919091528251808503909101815260e2909301909152815191012090565b606061072033610c31565b61075d5760405162461bcd60e51b815260206004820152600e60248201526d24b73b30b634b21039b4b3b732b960911b6044820152606401610438565b60ff8216156107b95760405162461bcd60e51b815260206004820152602260248201527f4f6e6c792063616c6c206f7065726174696f6e732061726520737570706f7274604482015261195960f21b6064820152608401610438565b5f5f81546107c6906114c8565b919050819055505f866001600160a01b03168686866040516107e99291906114ec565b5f6040518083038185875af1925050503d805f8114610823576040519150601f19603f3d011682016040523d82523d5f602084013e610828565b606091505b50925090508061083a57815160208301fd5b5095945050505050565b5f61084e84610c31565b1561061b5750630291f19360e51b5b9392505050565b5f5f5f5f610870610aca565b925092509250468314610886575f935050505090565b6040516331a9108f60e11b8152600481018290526001600160a01b03831690636352211e90602401602060405180830381865afa1580156108c9573d5f5f3e3d5ffd5b505050506040513d601f19601f820116820180604052508101906108ed9190611511565b935050505090565b5f5f7fc2fe14b6b0762bbe0af05e32c1508917360acb035e861274912c58b9c2806cb88989898960405161092a9291906114ec565b6040805191829003822060208301959095526001600160a01b03909316928101929092526060820152608081019190915260a0810186905260c0810185905260e08101849052610100016040516020818303038152906040528051906020012090505f61099685610624565b60405161190160f01b602082015260228101919091526042810183905260620160408051808303601f1901815291905280516020909101209a9950505050505050505050565b5f5f5f6109e7610aca565b6040516332afe8a160e21b815233600482015292955090935091506001600160a01b0383169063cabfa284906024016020604051808303815f875af1158015610a32573d5f5f3e3d5ffd5b505050506040513d601f19601f82011682018060405250810190610a56919061152c565b610aae5760405163c2a21d1d60e01b815260206004820152602260248201527f456967656e4167656e74363535313a2063616c6c6572206e6f7420616c6c6f77604482015261195960f21b6064820152608401610438565b610ac26001600160a01b0386168786610c55565b505050505050565b604080516060808252608082019092525f91829182918291906020820181803683370190505090506060604d60208301303c80806020019051810190610b10919061154b565b93509350935050909192565b6002546001600160a01b031615610b465760405163392cd68f60e21b815260040160405180910390fd5b6001600160a01b038116610bb05760405163c5dbe6e760e01b815260206004820152602a60248201527f456967656e4167656e74363535313a20696e76616c69642052657374616b696e60448201526933a1b7b73732b1ba37b960b11b6064820152608401610438565b600280546001600160a01b0319166001600160a01b0392909216919091179055565b5f5f5f610bdf8585610d0e565b5090925090505f816003811115610bf857610bf8611583565b148015610c165750856001600160a01b0316826001600160a01b0316145b80610c275750610c27868686610d57565b9695505050505050565b5f610c3a610864565b6001600160a01b0316826001600160a01b0316149050919050565b604080516001600160a01b038416602482015260448082018490528251808303909101815260649091019091526020810180516001600160e01b031663095ea7b360e01b179052610ca68482610e2d565b610d0857604080516001600160a01b03851660248201525f6044808301919091528251808303909101815260649091019091526020810180516001600160e01b031663095ea7b360e01b179052610cfe908590610ece565b610d088482610ece565b50505050565b5f5f5f8351604103610d45576020840151604085015160608601515f1a610d3788828585610f34565b955095509550505050610d50565b505081515f91506002905b9250925092565b5f5f5f856001600160a01b03168585604051602401610d77929190611597565b60408051601f198184030181529181526020820180516001600160e01b0316630b135d3f60e11b17905251610dac91906114fb565b5f60405180830381855afa9150503d805f8114610de4576040519150601f19603f3d011682016040523d82523d5f602084013e610de9565b606091505b5091509150818015610dfd57506020815110155b8015610c2757508051630b135d3f60e11b90610e2290830160209081019084016115b7565b149695505050505050565b5f5f5f846001600160a01b031684604051610e4891906114fb565b5f604051808303815f865af19150503d805f8114610e81576040519150601f19603f3d011682016040523d82523d5f602084013e610e86565b606091505b5091509150818015610eb0575080511580610eb0575080806020019051810190610eb0919061152c565b8015610ec557505f856001600160a01b03163b115b95945050505050565b5f610ee26001600160a01b03841683610ffc565b905080515f14158015610f06575080806020019051810190610f04919061152c565b155b15610f2f57604051635274afe760e01b81526001600160a01b0384166004820152602401610438565b505050565b5f80807f7fffffffffffffffffffffffffffffff5d576e7357a4501ddfe92f46681b20a0841115610f6d57505f91506003905082610ff2565b604080515f808252602082018084528a905260ff891692820192909252606081018790526080810186905260019060a0016020604051602081039080840390855afa158015610fbe573d5f5f3e3d5ffd5b5050604051601f1901519150506001600160a01b038116610fe957505f925060019150829050610ff2565b92505f91508190505b9450945094915050565b606061085d83835f845f5f856001600160a01b0316848660405161102091906114fb565b5f6040518083038185875af1925050503d805f811461105a576040519150601f19603f3d011682016040523d82523d5f602084013e61105f565b606091505b5091509150610c2786838360608261107f5761107a826110c6565b61085d565b815115801561109657506001600160a01b0384163b155b156110bf57604051639996b31560e01b81526001600160a01b0385166004820152602401610438565b508061085d565b8051156110d65780518082602001fd5b604051630a12f52160e11b815260040160405180910390fd5b50565b5f60208284031215611102575f5ffd5b81356001600160e01b03198116811461085d575f5ffd5b6001600160a01b03811681146110ef575f5ffd5b5f5f83601f84011261113d575f5ffd5b50813567ffffffffffffffff811115611154575f5ffd5b60208301915083602082850101111561116b575f5ffd5b9250929050565b634e487b7160e01b5f52604160045260245ffd5b5f82601f830112611195575f5ffd5b813567ffffffffffffffff8111156111af576111af611172565b604051601f8201601f19908116603f0116810167ffffffffffffffff811182821017156111de576111de611172565b6040528181528382016020018510156111f5575f5ffd5b816020850160208301375f918101602001919091529392505050565b5f5f5f5f5f5f60a08789031215611226575f5ffd5b863561123181611119565b955060208701359450604087013567ffffffffffffffff811115611253575f5ffd5b61125f89828a0161112d565b90955093505060608701359150608087013567ffffffffffffffff811115611285575f5ffd5b61129189828a01611186565b9150509295509295509295565b5f81518084528060208401602086015e5f602082860101526020601f19601f83011685010191505092915050565b602081525f61085d602083018461129e565b5f5f604083850312156112ef575f5ffd5b82359150602083013567ffffffffffffffff81111561130c575f5ffd5b61131885828601611186565b9150509250929050565b5f60208284031215611332575f5ffd5b5035919050565b5f5f5f5f5f6080868803121561134d575f5ffd5b853561135881611119565b945060208601359350604086013567ffffffffffffffff81111561137a575f5ffd5b6113868882890161112d565b909450925050606086013560ff8116811461139f575f5ffd5b809150509295509295909350565b5f5f5f604084860312156113bf575f5ffd5b83356113ca81611119565b9250602084013567ffffffffffffffff8111156113e5575f5ffd5b6113f18682870161112d565b9497909650939450505050565b5f5f5f5f5f5f5f60c0888a031215611414575f5ffd5b873561141f81611119565b965060208801359550604088013567ffffffffffffffff811115611441575f5ffd5b61144d8a828b0161112d565b989b979a50986060810135976080820135975060a09091013595509350505050565b5f5f5f60608486031215611481575f5ffd5b833561148c81611119565b9250602084013561149c81611119565b929592945050506040919091013590565b5f602082840312156114bd575f5ffd5b813561085d81611119565b5f600182016114e557634e487b7160e01b5f52601160045260245ffd5b5060010190565b818382375f9101908152919050565b5f82518060208501845e5f920191825250919050565b5f60208284031215611521575f5ffd5b815161085d81611119565b5f6020828403121561153c575f5ffd5b8151801515811461085d575f5ffd5b5f5f5f6060848603121561155d575f5ffd5b8351602085015190935061157081611119565b6040949094015192959394509192915050565b634e487b7160e01b5f52602160045260245ffd5b828152604060208201525f6115af604083018461129e565b949350505050565b5f602082840312156115c7575f5ffd5b505191905056fea26469706673582212203851a9b2cbe560815533aa7b51b1b34d5a5e55bd1dcb29712836c83948ec779f64736f6c634300081c0033","linkReferences":{}},"methodIdentifiers":{"EIGEN_AGENT_EXEC_TYPEHASH()":"7468ba9f","TREASURE_RESTAKING_VERSION()":"b8cecf9d","approveByWhitelistedContract(address,address,uint256)":"cb7537f5","createEigenAgentCallDigestHash(address,uint256,bytes,uint256,uint256,uint256)":"c6eb5f9f","domainSeparatorEigenAgent(uint256)":"3f994877","execNonce()":"d5f42320","execute(address,uint256,bytes,uint8)":"51945447","executeWithSignature(address,uint256,bytes,uint256,bytes)":"0993d763","isValidSignature(bytes32,bytes)":"1626ba7e","isValidSigner(address,bytes)":"523e3260","owner()":"8da5cb5b","restakingConnector()":"7b50d045","setInitialRestakingConnector(address)":"fd06de5c","state()":"c19d93fb","supportsInterface(bytes4)":"01ffc9a7","token()":"fc0c546a"},"id":192}