{"abi":[{"type":"constructor","inputs":[],"stateMutability":"nonpayable"},{"type":"function","name":"addAdmin","inputs":[{"name":"a","type":"address","internalType":"address"}],"outputs":[],"stateMutability":"nonpayable"},{"type":"function","name":"claim","inputs":[{"name":"amount","type":"uint256","internalType":"uint256"}],"outputs":[],"stateMutability":"nonpayable"},{"type":"function","name":"initialize","inputs":[{"name":"_token","type":"address","internalType":"address"},{"name":"_maxLimitPerUser","type":"uint256","internalType":"uint256"}],"outputs":[],"stateMutability":"nonpayable"},{"type":"function","name":"isAdmin","inputs":[{"name":"a","type":"address","internalType":"address"}],"outputs":[{"name":"","type":"bool","internalType":"bool"}],"stateMutability":"view"},{"type":"function","name":"maxLimitPerUser","inputs":[],"outputs":[{"name":"","type":"uint256","internalType":"uint256"}],"stateMutability":"view"},{"type":"function","name":"owner","inputs":[],"outputs":[{"name":"","type":"address","internalType":"address"}],"stateMutability":"view"},{"type":"function","name":"removeAdmin","inputs":[{"name":"a","type":"address","internalType":"address"}],"outputs":[],"stateMutability":"nonpayable"},{"type":"function","name":"renounceOwnership","inputs":[],"outputs":[],"stateMutability":"nonpayable"},{"type":"function","name":"setMaxLimit","inputs":[{"name":"_maxLimitPerUser","type":"uint256","internalType":"uint256"}],"outputs":[],"stateMutability":"nonpayable"},{"type":"function","name":"setToken","inputs":[{"name":"_token","type":"address","internalType":"address"}],"outputs":[],"stateMutability":"nonpayable"},{"type":"function","name":"token","inputs":[],"outputs":[{"name":"","type":"address","internalType":"contract IERC20"}],"stateMutability":"view"},{"type":"function","name":"transferOwnership","inputs":[{"name":"newOwner","type":"address","internalType":"address"}],"outputs":[],"stateMutability":"nonpayable"},{"type":"function","name":"userClaims","inputs":[{"name":"","type":"address","internalType":"address"}],"outputs":[{"name":"","type":"uint256","internalType":"uint256"}],"stateMutability":"view"},{"type":"function","name":"withdrawTokens","inputs":[{"name":"amount","type":"uint256","internalType":"uint256"}],"outputs":[],"stateMutability":"nonpayable"},{"type":"event","name":"Initialized","inputs":[{"name":"version","type":"uint64","indexed":false,"internalType":"uint64"}],"anonymous":false},{"type":"event","name":"MaxLimitSet","inputs":[{"name":"maxLimit","type":"uint256","indexed":false,"internalType":"uint256"}],"anonymous":false},{"type":"event","name":"OwnershipTransferred","inputs":[{"name":"previousOwner","type":"address","indexed":true,"internalType":"address"},{"name":"newOwner","type":"address","indexed":true,"internalType":"address"}],"anonymous":false},{"type":"event","name":"TokenSet","inputs":[{"name":"token","type":"address","indexed":true,"internalType":"address"}],"anonymous":false},{"type":"event","name":"TokensClaimed","inputs":[{"name":"user","type":"address","indexed":true,"internalType":"address"},{"name":"amount","type":"uint256","indexed":false,"internalType":"uint256"}],"anonymous":false},{"type":"event","name":"TokensWithdrawn","inputs":[{"name":"admin","type":"address","indexed":true,"internalType":"address"},{"name":"amount","type":"uint256","indexed":false,"internalType":"uint256"}],"anonymous":false},{"type":"error","name":"ClaimLimitExceeded","inputs":[]},{"type":"error","name":"InsufficientFaucetBalance","inputs":[]},{"type":"error","name":"InvalidInitialization","inputs":[]},{"type":"error","name":"InvalidMaxLimit","inputs":[]},{"type":"error","name":"InvalidTokenAddress","inputs":[]},{"type":"error","name":"NotInitializing","inputs":[]},{"type":"error","name":"OwnableInvalidOwner","inputs":[{"name":"owner","type":"address","internalType":"address"}]},{"type":"error","name":"OwnableUnauthorizedAccount","inputs":[{"name":"account","type":"address","internalType":"address"}]}],"bytecode":{"object":"0x6080604052348015600e575f5ffd5b5060156019565b60c9565b7ff0c57e16840df040f15088dc2f81fe391c3923bec73e23a9662efc9c229c6a00805468010000000000000000900460ff161560685760405163f92ee8a960e01b815260040160405180910390fd5b80546001600160401b039081161460c65780546001600160401b0319166001600160401b0390811782556040519081527fc7f505b2f371ae2175ee4913f4499e1f2633a7b5936321eed1cdaeb6115181d29060200160405180910390a15b50565b610be1806100d65f395ff3fe608060405234801561000f575f5ffd5b50600436106100e4575f3560e01c8063715018a611610088578063cd6dc68711610063578063cd6dc687146101db578063f0a3563c146101ee578063f2fde38b1461020d578063fc0c546a14610220575f5ffd5b8063715018a6146101a05780638da5cb5b146101a8578063bf8bcee4146101c8575f5ffd5b806324d7806c116100c357806324d7806c1461012c578063315a095d14610167578063379607f51461017a578063704802751461018d575f5ffd5b8062699780146100e8578063144fa6d7146101045780631785f53c14610119575b5f5ffd5b6100f160025481565b6040519081526020015b60405180910390f35b610117610112366004610ac5565b610233565b005b610117610127366004610ac5565b610284565b61015761013a366004610ac5565b6001600160a01b03165f9081526020819052604090205460ff1690565b60405190151581526020016100fb565b610117610175366004610ae5565b6102ac565b610117610188366004610ae5565b61041d565b61011761019b366004610ac5565b6105aa565b6101176105d5565b6101b06105e8565b6040516001600160a01b0390911681526020016100fb565b6101176101d6366004610ae5565b610616565b6101176101e9366004610afc565b61065b565b6100f16101fc366004610ac5565b60036020525f908152604090205481565b61011761021b366004610ac5565b61077b565b6001546101b0906001600160a01b031681565b335f9081526020819052604090205460ff168061025357506102536107b5565b6102785760405162461bcd60e51b815260040161026f90610b24565b60405180910390fd5b610281816107ce565b50565b61028c61083e565b6001600160a01b03165f908152602081905260409020805460ff19169055565b335f9081526020819052604090205460ff16806102cc57506102cc6107b5565b6102e85760405162461bcd60e51b815260040161026f90610b24565b6001546040516370a0823160e01b815230600482015282916001600160a01b0316906370a0823190602401602060405180830381865afa15801561032e573d5f5f3e3d5ffd5b505050506040513d601f19601f820116820180604052508101906103529190610b50565b1015610371576040516325bab55360e01b815260040160405180910390fd5b60015460405163a9059cbb60e01b8152336004820152602481018390526001600160a01b039091169063a9059cbb906044016020604051808303815f875af11580156103bf573d5f5f3e3d5ffd5b505050506040513d601f19601f820116820180604052508101906103e39190610b67565b5060405181815233907f6352c5382c4a4578e712449ca65e83cdb392d045dfcf1cad9615189db2da244b906020015b60405180910390a250565b600254335f9081526003602052604090205461043a908390610b86565b11156104595760405163eb4ba7ff60e01b815260040160405180910390fd5b6001546040516370a0823160e01b815230600482015282916001600160a01b0316906370a0823190602401602060405180830381865afa15801561049f573d5f5f3e3d5ffd5b505050506040513d601f19601f820116820180604052508101906104c39190610b50565b10156104e2576040516325bab55360e01b815260040160405180910390fd5b335f9081526003602052604081208054839290610500908490610b86565b909155505060015460405163a9059cbb60e01b8152336004820152602481018390526001600160a01b039091169063a9059cbb906044016020604051808303815f875af1158015610553573d5f5f3e3d5ffd5b505050506040513d601f19601f820116820180604052508101906105779190610b67565b5060405181815233907f896e034966eaaf1adc54acc0f257056febbd300c9e47182cf761982cf1f5e43090602001610412565b6105b261083e565b6001600160a01b03165f908152602081905260409020805460ff19166001179055565b6105dd61083e565b6105e65f610870565b565b7f9016d09d72d40fdae2fd8ceac6b6234c7706214fd39c1cd1e609a0528c199300546001600160a01b031690565b335f9081526020819052604090205460ff168061063657506106366107b5565b6106525760405162461bcd60e51b815260040161026f90610b24565b610281816108e0565b7ff0c57e16840df040f15088dc2f81fe391c3923bec73e23a9662efc9c229c6a008054600160401b810460ff16159067ffffffffffffffff165f811580156106a05750825b90505f8267ffffffffffffffff1660011480156106bc5750303b155b9050811580156106ca575080155b156106e85760405163f92ee8a960e01b815260040160405180910390fd5b845467ffffffffffffffff19166001178555831561071257845460ff60401b1916600160401b1785555b61071a61093b565b610723876107ce565b61072c866108e0565b831561077257845460ff60401b19168555604051600181527fc7f505b2f371ae2175ee4913f4499e1f2633a7b5936321eed1cdaeb6115181d29060200160405180910390a15b50505050505050565b61078361083e565b6001600160a01b0381166107ac57604051631e4fbdf760e01b81525f600482015260240161026f565b61028181610870565b5f336107bf6105e8565b6001600160a01b031614905090565b6001600160a01b0381166107f557604051630f58058360e11b815260040160405180910390fd5b600180546001600160a01b0319166001600160a01b0383169081179091556040517fa07c91c183e42229e705a9795a1c06d76528b673788b849597364528c96eefb7905f90a250565b336108476105e8565b6001600160a01b0316146105e65760405163118cdaa760e01b815233600482015260240161026f565b7f9016d09d72d40fdae2fd8ceac6b6234c7706214fd39c1cd1e609a0528c19930080546001600160a01b031981166001600160a01b03848116918217845560405192169182907f8be0079c531659141344cd1fd0a4f28419497f9722a3daafe3b4186f6b6457e0905f90a3505050565b805f0361090057604051636d239d2b60e01b815260040160405180910390fd5b60028190556040518181527f129284bfad21f757c1a35a0ed94f01f67711f939c3490d2b9e9e73035df34c9f9060200160405180910390a150565b7ff0c57e16840df040f15088dc2f81fe391c3923bec73e23a9662efc9c229c6a008054600160401b810460ff16159067ffffffffffffffff165f811580156109805750825b90505f8267ffffffffffffffff16600114801561099c5750303b155b9050811580156109aa575080155b156109c85760405163f92ee8a960e01b815260040160405180910390fd5b845467ffffffffffffffff1916600117855583156109f257845460ff60401b1916600160401b1785555b6109fb33610a48565b8315610a4157845460ff60401b19168555604051600181527fc7f505b2f371ae2175ee4913f4499e1f2633a7b5936321eed1cdaeb6115181d29060200160405180910390a15b5050505050565b610a50610a59565b61028181610aa2565b7ff0c57e16840df040f15088dc2f81fe391c3923bec73e23a9662efc9c229c6a0054600160401b900460ff166105e657604051631afcd79f60e31b815260040160405180910390fd5b610783610a59565b80356001600160a01b0381168114610ac0575f5ffd5b919050565b5f60208284031215610ad5575f5ffd5b610ade82610aaa565b9392505050565b5f60208284031215610af5575f5ffd5b5035919050565b5f5f60408385031215610b0d575f5ffd5b610b1683610aaa565b946020939093013593505050565b6020808252601290820152712737ba1030b236b4b71037b91037bbb732b960711b604082015260600190565b5f60208284031215610b60575f5ffd5b5051919050565b5f60208284031215610b77575f5ffd5b81518015158114610ade575f5ffd5b80820180821115610ba557634e487b7160e01b5f52601160045260245ffd5b9291505056fea2646970667358221220cde9edc61c381da0be69ed0a561b151a49e771be3b5abef10b423600a9f80f3964736f6c634300081c0033","linkReferences":{}},"methodIdentifiers":{"addAdmin(address)":"70480275","claim(uint256)":"379607f5","initialize(address,uint256)":"cd6dc687","isAdmin(address)":"24d7806c","maxLimitPerUser()":"00699780","owner()":"8da5cb5b","removeAdmin(address)":"1785f53c","renounceOwnership()":"715018a6","setMaxLimit(uint256)":"bf8bcee4","setToken(address)":"144fa6d7","token()":"fc0c546a","transferOwnership(address)":"f2fde38b","userClaims(address)":"f0a3563c","withdrawTokens(uint256)":"315a095d"},"id":192}