{"abi":[{"type":"constructor","inputs":[{"name":"_router","type":"address","internalType":"address"}],"stateMutability":"nonpayable"},{"type":"fallback","stateMutability":"payable"},{"type":"receive","stateMutability":"payable"},{"type":"function","name":"allowlistDestinationChain","inputs":[{"name":"_destinationChainSelector","type":"uint64","internalType":"uint64"},{"name":"allowed","type":"bool","internalType":"bool"}],"outputs":[],"stateMutability":"nonpayable"},{"type":"function","name":"allowlistSender","inputs":[{"name":"_sourceChainSelector","type":"uint64","internalType":"uint64"},{"name":"_sender","type":"address","internalType":"address"},{"name":"allowed","type":"bool","internalType":"bool"}],"outputs":[],"stateMutability":"nonpayable"},{"type":"function","name":"allowlistSourceChain","inputs":[{"name":"_sourceChainSelector","type":"uint64","internalType":"uint64"},{"name":"allowed","type":"bool","internalType":"bool"}],"outputs":[],"stateMutability":"nonpayable"},{"type":"function","name":"allowlistedDestinationChains","inputs":[{"name":"","type":"uint64","internalType":"uint64"}],"outputs":[{"name":"","type":"bool","internalType":"bool"}],"stateMutability":"view"},{"type":"function","name":"allowlistedSenders","inputs":[{"name":"sourceChainSelector","type":"uint64","internalType":"uint64"},{"name":"sender","type":"address","internalType":"address"}],"outputs":[{"name":"","type":"bool","internalType":"bool"}],"stateMutability":"view"},{"type":"function","name":"allowlistedSourceChains","inputs":[{"name":"","type":"uint64","internalType":"uint64"}],"outputs":[{"name":"","type":"bool","internalType":"bool"}],"stateMutability":"view"},{"type":"function","name":"ccipReceive","inputs":[{"name":"message","type":"tuple","internalType":"struct Client.Any2EVMMessage","components":[{"name":"messageId","type":"bytes32","internalType":"bytes32"},{"name":"sourceChainSelector","type":"uint64","internalType":"uint64"},{"name":"sender","type":"bytes","internalType":"bytes"},{"name":"data","type":"bytes","internalType":"bytes"},{"name":"destTokenAmounts","type":"tuple[]","internalType":"struct Client.EVMTokenAmount[]","components":[{"name":"token","type":"address","internalType":"address"},{"name":"amount","type":"uint256","internalType":"uint256"}]}]}],"outputs":[],"stateMutability":"nonpayable"},{"type":"function","name":"getRouter","inputs":[],"outputs":[{"name":"","type":"address","internalType":"address"}],"stateMutability":"view"},{"type":"function","name":"getSenderHooks","inputs":[],"outputs":[{"name":"","type":"address","internalType":"contract ISenderHooks"}],"stateMutability":"view"},{"type":"function","name":"initialize","inputs":[],"outputs":[],"stateMutability":"nonpayable"},{"type":"function","name":"owner","inputs":[],"outputs":[{"name":"","type":"address","internalType":"address"}],"stateMutability":"view"},{"type":"function","name":"renounceOwnership","inputs":[],"outputs":[],"stateMutability":"nonpayable"},{"type":"function","name":"sendMessagePayNative","inputs":[{"name":"_destinationChainSelector","type":"uint64","internalType":"uint64"},{"name":"_receiver","type":"address","internalType":"address"},{"name":"_text","type":"string","internalType":"string"},{"name":"_tokenAmounts","type":"tuple[]","internalType":"struct Client.EVMTokenAmount[]","components":[{"name":"token","type":"address","internalType":"address"},{"name":"amount","type":"uint256","internalType":"uint256"}]},{"name":"_overrideGasLimit","type":"uint256","internalType":"uint256"}],"outputs":[{"name":"messageId","type":"bytes32","internalType":"bytes32"}],"stateMutability":"payable"},{"type":"function","name":"senderHooks","inputs":[],"outputs":[{"name":"","type":"address","internalType":"contract ISenderHooks"}],"stateMutability":"view"},{"type":"function","name":"setSenderHooks","inputs":[{"name":"_senderHooks","type":"address","internalType":"contract ISenderHooks"}],"outputs":[],"stateMutability":"nonpayable"},{"type":"function","name":"supportsInterface","inputs":[{"name":"interfaceId","type":"bytes4","internalType":"bytes4"}],"outputs":[{"name":"","type":"bool","internalType":"bool"}],"stateMutability":"view"},{"type":"function","name":"transferOwnership","inputs":[{"name":"newOwner","type":"address","internalType":"address"}],"outputs":[],"stateMutability":"nonpayable"},{"type":"function","name":"withdraw","inputs":[{"name":"_beneficiary","type":"address","internalType":"address"},{"name":"_amount","type":"uint256","internalType":"uint256"}],"outputs":[],"stateMutability":"nonpayable"},{"type":"function","name":"withdrawToken","inputs":[{"name":"_beneficiary","type":"address","internalType":"address"},{"name":"_token","type":"address","internalType":"address"},{"name":"_amount","type":"uint256","internalType":"uint256"}],"outputs":[],"stateMutability":"nonpayable"},{"type":"event","name":"AllowlistDestinationChain","inputs":[{"name":"destinationChainSelector","type":"uint64","indexed":true,"internalType":"uint64"},{"name":"allowed","type":"bool","indexed":false,"internalType":"bool"}],"anonymous":false},{"type":"event","name":"AllowlistSender","inputs":[{"name":"sourceChainSelector","type":"uint64","indexed":true,"internalType":"uint64"},{"name":"sender","type":"address","indexed":true,"internalType":"address"},{"name":"allowed","type":"bool","indexed":false,"internalType":"bool"}],"anonymous":false},{"type":"event","name":"AllowlistSourceChain","inputs":[{"name":"sourceChainSelector","type":"uint64","indexed":true,"internalType":"uint64"},{"name":"allowed","type":"bool","indexed":false,"internalType":"bool"}],"anonymous":false},{"type":"event","name":"Initialized","inputs":[{"name":"version","type":"uint64","indexed":false,"internalType":"uint64"}],"anonymous":false},{"type":"event","name":"MatchedReceivedFunctionSelector","inputs":[{"name":"","type":"bytes4","indexed":true,"internalType":"bytes4"}],"anonymous":false},{"type":"event","name":"MessageReceived","inputs":[{"name":"messageId","type":"bytes32","indexed":true,"internalType":"bytes32"},{"name":"sourceChainSelector","type":"uint64","indexed":true,"internalType":"uint64"},{"name":"sender","type":"address","indexed":false,"internalType":"address"},{"name":"tokenAmounts","type":"tuple[]","indexed":false,"internalType":"struct Client.EVMTokenAmount[]","components":[{"name":"token","type":"address","internalType":"address"},{"name":"amount","type":"uint256","internalType":"uint256"}]}],"anonymous":false},{"type":"event","name":"MessageSent","inputs":[{"name":"messageId","type":"bytes32","indexed":true,"internalType":"bytes32"},{"name":"destinationChainSelector","type":"uint64","indexed":true,"internalType":"uint64"},{"name":"receiver","type":"address","indexed":false,"internalType":"address"},{"name":"tokenAmounts","type":"tuple[]","indexed":false,"internalType":"struct Client.EVMTokenAmount[]","components":[{"name":"token","type":"address","internalType":"address"},{"name":"amount","type":"uint256","internalType":"uint256"}]},{"name":"feeToken","type":"address","indexed":false,"internalType":"address"},{"name":"fees","type":"uint256","indexed":false,"internalType":"uint256"}],"anonymous":false},{"type":"event","name":"OwnershipTransferred","inputs":[{"name":"previousOwner","type":"address","indexed":true,"internalType":"address"},{"name":"newOwner","type":"address","indexed":true,"internalType":"address"}],"anonymous":false},{"type":"event","name":"SendingFundsToAgentOwner","inputs":[{"name":"","type":"address","indexed":true,"internalType":"address"},{"name":"","type":"uint256","indexed":true,"internalType":"uint256"}],"anonymous":false},{"type":"event","name":"SetSenderHooks","inputs":[{"name":"","type":"address","indexed":true,"internalType":"address"}],"anonymous":false},{"type":"error","name":"AddressEmptyCode","inputs":[{"name":"target","type":"address","internalType":"address"}]},{"type":"error","name":"AddressInsufficientBalance","inputs":[{"name":"account","type":"address","internalType":"address"}]},{"type":"error","name":"CannotSendZeroTokens","inputs":[{"name":"token","type":"address","internalType":"address"}]},{"type":"error","name":"DestinationChainNotAllowed","inputs":[{"name":"destinationChainSelector","type":"uint64","internalType":"uint64"}]},{"type":"error","name":"FailedInnerCall","inputs":[]},{"type":"error","name":"FailedToRefundExcessEth","inputs":[{"name":"sender","type":"address","internalType":"address"},{"name":"refundAmount","type":"uint256","internalType":"uint256"}]},{"type":"error","name":"FailedToWithdrawEth","inputs":[{"name":"owner","type":"address","internalType":"address"},{"name":"target","type":"address","internalType":"address"},{"name":"value","type":"uint256","internalType":"uint256"}]},{"type":"error","name":"InvalidInitialization","inputs":[]},{"type":"error","name":"InvalidReceiverAddress","inputs":[]},{"type":"error","name":"InvalidRouter","inputs":[{"name":"router","type":"address","internalType":"address"}]},{"type":"error","name":"NotEnoughBalance","inputs":[{"name":"currentBalance","type":"uint256","internalType":"uint256"},{"name":"calculatedFees","type":"uint256","internalType":"uint256"}]},{"type":"error","name":"NotEnoughEthGasFees","inputs":[{"name":"sentGasFees","type":"uint256","internalType":"uint256"},{"name":"requiredGasFees","type":"uint256","internalType":"uint256"}]},{"type":"error","name":"NotInitializing","inputs":[]},{"type":"error","name":"OwnableInvalidOwner","inputs":[{"name":"owner","type":"address","internalType":"address"}]},{"type":"error","name":"OwnableUnauthorizedAccount","inputs":[{"name":"account","type":"address","internalType":"address"}]},{"type":"error","name":"SafeERC20FailedOperation","inputs":[{"name":"token","type":"address","internalType":"address"}]},{"type":"error","name":"SenderNotAllowed","inputs":[{"name":"sourceChainSelector","type":"uint64","internalType":"uint64"},{"name":"sender","type":"address","internalType":"address"}]},{"type":"error","name":"SourceChainNotAllowed","inputs":[{"name":"sourceChainSelector","type":"uint64","internalType":"uint64"}]},{"type":"error","name":"WithdrawalExceedsBalance","inputs":[{"name":"amount","type":"uint256","internalType":"uint256"},{"name":"currentBalance","type":"uint256","internalType":"uint256"}]}],"bytecode":{"object":"0x60a060405234801561000f575f5ffd5b5060405161235338038061235383398101604081905261002e9161012a565b80806001600160a01b03811661005d576040516335fdcccd60e21b81525f600482015260240160405180910390fd5b6001600160a01b031660805250610072610078565b50610157565b7ff0c57e16840df040f15088dc2f81fe391c3923bec73e23a9662efc9c229c6a00805468010000000000000000900460ff16156100c85760405163f92ee8a960e01b815260040160405180910390fd5b80546001600160401b03908116146101275780546001600160401b0319166001600160401b0390811782556040519081527fc7f505b2f371ae2175ee4913f4499e1f2633a7b5936321eed1cdaeb6115181d29060200160405180910390a15b50565b5f6020828403121561013a575f5ffd5b81516001600160a01b0381168114610150575f5ffd5b9392505050565b6080516121dd6101765f395f81816102f8015261098101526121dd5ff3fe60806040526004361061010a575f3560e01c80638da5cb5b11610099578063db04fa4911610060578063db04fa491461033b578063e09df8251461035a578063f039a00914610377578063f2fde38b14610396578063f3fef3a3146103b557005b80638da5cb5b1461025c57806396d3b83d146102ac578063ab2fdedd146102cb578063b0f479a1146102ea578063cf7f2b341461031c57005b80637132732a116100dd5780637132732a146101c6578063715018a6146101e757806375c67c66146101fb5780638129fc1c1461022957806385572ffb1461023d57005b806301e336671461010c57806301ffc9a71461012b578063039faeb01461015f5780634030d52114610198575b005b348015610117575f5ffd5b5061010a6101263660046119fc565b6103d4565b348015610136575f5ffd5b5061014a610145366004611a4f565b610490565b60405190151581526020015b60405180910390f35b34801561016a575f5ffd5b5061014a610179366004611a80565b600260209081525f928352604080842090915290825290205460ff1681565b3480156101a3575f5ffd5b5061014a6101b2366004611ab5565b60016020525f908152604090205460ff1681565b6101d96101d4366004611c09565b6104c6565b604051908152602001610156565b3480156101f2575f5ffd5b5061010a610859565b348015610206575f5ffd5b5061014a610215366004611ab5565b5f6020819052908152604090205460ff1681565b348015610234575f5ffd5b5061010a61086c565b348015610248575f5ffd5b5061010a610257366004611ccb565b610976565b348015610267575f5ffd5b507f9016d09d72d40fdae2fd8ceac6b6234c7706214fd39c1cd1e609a0528c199300546001600160a01b03165b6040516001600160a01b039091168152602001610156565b3480156102b7575f5ffd5b5061010a6102c6366004611d0e565b6109d5565b3480156102d6575f5ffd5b5061010a6102e5366004611d38565b610a3a565b3480156102f5575f5ffd5b507f0000000000000000000000000000000000000000000000000000000000000000610294565b348015610327575f5ffd5b50603254610294906001600160a01b031681565b348015610346575f5ffd5b5061010a610355366004611d0e565b610aeb565b348015610365575f5ffd5b506032546001600160a01b0316610294565b348015610382575f5ffd5b5061010a610391366004611d53565b610b4a565b3480156103a1575f5ffd5b5061010a6103b0366004611d38565b610bc7565b3480156103c0575f5ffd5b5061010a6103cf366004611d99565b610c01565b6103dc610cc0565b6040516370a0823160e01b81523060048201525f906001600160a01b038416906370a0823190602401602060405180830381865afa158015610420573d5f5f3e3d5ffd5b505050506040513d601f19601f820116820180604052508101906104449190611dc3565b90508082111561047657604051634314108f60e11b815260048101839052602481018290526044015b60405180910390fd5b61048a6001600160a01b0384168584610d1b565b50505050565b5f6001600160e01b031982166385572ffb60e01b14806104c057506001600160e01b031982166301ffc9a760e01b145b92915050565b6001600160401b0386165f90815260208190526040812054879060ff1661050b5760405163206abad760e01b81526001600160401b038216600482015260240161046d565b866001600160a01b0381166105335760405163502ffa3f60e11b815260040160405180910390fd5b5f610542898989895f8a610d7a565b90505f306001600160a01b031663b0f479a16040518163ffffffff1660e01b8152600401602060405180830381865afa158015610581573d5f5f3e3d5ffd5b505050506040513d601f19601f820116820180604052508101906105a59190611dda565b90505f816001600160a01b03166320487ded8d856040518363ffffffff1660e01b81526004016105d6929190611e23565b602060405180830381865afa1580156105f1573d5f5f3e3d5ffd5b505050506040513d601f19601f820116820180604052508101906106159190611dc3565b90505f61062182610f81565b90505f5b8951811015610717575f8a828151811061064157610641611ef7565b60200260200101516020015111801561065a5750333014155b156106b8576106b833308c848151811061067657610676611ef7565b6020026020010151602001518d858151811061069457610694611ef7565b60200260200101515f01516001600160a01b0316610ffb909392919063ffffffff16565b61070f848b83815181106106ce576106ce611ef7565b6020026020010151602001518c84815181106106ec576106ec611ef7565b60200260200101515f01516001600160a01b03166110349092919063ffffffff16565b600101610625565b50826001600160a01b03166396f4e9f9838f876040518463ffffffff1660e01b8152600401610747929190611e23565b60206040518083038185885af1158015610763573d5f5f3e3d5ffd5b50505050506040513d601f19601f820116820180604052508101906107889190611dc3565b96508c6001600160401b0316877ff41bc76bbe18ec95334bdb88f45c769b987464044ead28e11193a766ae8225cb8e8c5f876040516107ca9493929190611f5a565b60405180910390a38015610849576040515f90339083908381818185875af1925050503d805f8114610817576040519150601f19603f3d011682016040523d82523d5f602084013e61081c565b606091505b505090508061084757604051633e1e7bd760e11b81523360048201526024810183905260440161046d565b505b5050505050509695505050505050565b610861610cc0565b61086a5f6110c3565b565b7ff0c57e16840df040f15088dc2f81fe391c3923bec73e23a9662efc9c229c6a008054600160401b810460ff1615906001600160401b03165f811580156108b05750825b90505f826001600160401b031660011480156108cb5750303b155b9050811580156108d9575080155b156108f75760405163f92ee8a960e01b815260040160405180910390fd5b845467ffffffffffffffff19166001178555831561092157845460ff60401b1916600160401b1785555b610929611133565b831561096f57845460ff60401b19168555604051600181527fc7f505b2f371ae2175ee4913f4499e1f2633a7b5936321eed1cdaeb6115181d29060200160405180910390a15b5050505050565b336001600160a01b037f000000000000000000000000000000000000000000000000000000000000000016146109c1576040516335fdcccd60e21b815233600482015260240161046d565b6109d26109cd82612004565b61113c565b50565b6109dd610cc0565b6001600160401b0382165f8181526020818152604091829020805460ff191685151590811790915591519182527f79e93956b5c7b59cb1d0aaa5849af9993c5b994c44b148b1944f4e4ecf1e9b8991015b60405180910390a25050565b610a42610cc0565b6001600160a01b038116610aa25760405162461bcd60e51b815260206004820152602160248201527f5f73656e646572486f6f6b732063616e6e6f74206265206164647265737328306044820152602960f81b606482015260840161046d565b603280546001600160a01b0319166001600160a01b0383169081179091556040517fa004f5fb3ef43b99d06838916e3792337321b7da5a5222a2611de62fce8e17bf905f90a250565b610af3610cc0565b6001600160401b0382165f81815260016020908152604091829020805460ff191685151590811790915591519182527fa5f858f3914e62a82af355192513d8dbc618ff9815e7213a71930d8996a3cb829101610a2e565b610b52610cc0565b6001600160401b0383165f8181526002602090815260408083206001600160a01b03871680855290835292819020805460ff191686151590811790915590519081529192917f7341e817a8458e8902ebedbcd9e82db8299e43de630c89ade217662e6cafe906910160405180910390a3505050565b610bcf610cc0565b6001600160a01b038116610bf857604051631e4fbdf760e01b81525f600482015260240161046d565b6109d2816110c3565b610c09610cc0565b47811115610c3357604051634314108f60e11b81526004810182905247602482015260440161046d565b5f826001600160a01b0316826040515f6040518083038185875af1925050503d805f8114610c7c576040519150601f19603f3d011682016040523d82523d5f602084013e610c81565b606091505b5050905080610cbb57604051639d11f56360e01b81523360048201526001600160a01b03841660248201526044810183905260640161046d565b505050565b33610cf27f9016d09d72d40fdae2fd8ceac6b6234c7706214fd39c1cd1e609a0528c199300546001600160a01b031690565b6001600160a01b03161461086a5760405163118cdaa760e01b815233600482015260240161046d565b6040516001600160a01b03838116602483015260448201839052610cbb91859182169063a9059cbb906064015b604051602081830303815290604052915060e01b6020820180516001600160e01b038381831617835250505050611271565b610db46040518060a001604052806060815260200160608152602001606081526020015f6001600160a01b03168152602001606081525090565b835f5b8151811015610e2f575f828281518110610dd357610dd3611ef7565b60200260200101516020015111610e2757818181518110610df657610df6611ef7565b60209081029190910101515160405163ce9a320f60e01b81526001600160a01b03909116600482015260240161046d565b600101610db7565b505f8787604051602001610e449291906120b5565b60408051601f1981840301815290829052603254631e3b235760e11b83529092505f916001600160a01b0390911690633c7646ae90610e899085908b906004016120e3565b6020604051808303815f875af1158015610ea5573d5f5f3e3d5ffd5b505050506040513d601f19601f82011682018060405250810190610ec99190611dc3565b90508415610ed45750835b6040805160a081019091526001600160a01b038b1660c08201528060e081016040516020818303038152906040528152602001838152602001888152602001876001600160a01b03168152602001610f7160405180602001604052808581525060408051915160248084019190915281518084039091018152604490920190526020810180516001600160e01b03166397a657c960e01b17905290565b90529a9950505050505050505050565b5f333014610fcc5734821115610fb3576040516319c7b56f60e31b81523460048201526024810183905260440161046d565b81341115610fc5576104c08234612107565b505f919050565b47821115610fc557604051634787a10360e11b81524760048201526024810183905260440161046d565b919050565b6040516001600160a01b03848116602483015283811660448301526064820183905261048a9186918216906323b872dd90608401610d48565b604080516001600160a01b038416602482015260448082018490528251808303909101815260649091019091526020810180516001600160e01b031663095ea7b360e01b17905261108584826112d2565b61048a576040516001600160a01b0384811660248301525f60448301526110b991869182169063095ea7b390606401610d48565b61048a8482611271565b7f9016d09d72d40fdae2fd8ceac6b6234c7706214fd39c1cd1e609a0528c19930080546001600160a01b031981166001600160a01b03848116918217845560405192169182907f8be0079c531659141344cd1fd0a4f28419497f9722a3daafe3b4186f6b6457e0905f90a3505050565b61086a33611373565b806020015181604001518060200190518101906111599190611dda565b6001600160401b0382165f9081526001602052604090205460ff1661119c5760405163042784cf60e31b81526001600160401b038316600482015260240161046d565b6001600160401b0382165f9081526002602090815260408083206001600160a01b038516845290915290205460ff166112025760405163046ea56b60e51b81526001600160401b03831660048201526001600160a01b038216602482015260440161046d565b82602001516001600160401b0316835f01517f73adea18308efe766f16a2cfd3ff8324f62191ae6a6e387075b52e0fae1214e8856040015180602001905181019061124d9190611dda565b8660800151604051611260929190612126565b60405180910390a3610cbb83611384565b5f6112856001600160a01b038416836115b6565b905080515f141580156112a95750808060200190518101906112a79190612149565b155b15610cbb57604051635274afe760e01b81526001600160a01b038416600482015260240161046d565b5f5f5f846001600160a01b0316846040516112ed9190612164565b5f604051808303815f865af19150503d805f8114611326576040519150601f19603f3d011682016040523d82523d5f602084013e61132b565b606091505b50915091508180156113555750805115806113555750808060200190518101906113559190612149565b801561136a57505f856001600160a01b03163b115b95945050505050565b61137b6115ca565b6109d281611613565b6060810151608082015160405163182d14b160e31b81525f9073__$c09305f6e49770e0e311136a0d66fc48c7$__9063c168a588906113c790869060040161217a565b602060405180830381865af41580156113e2573d5f5f3e3d5ffd5b505050506040513d601f19601f82011682018060405250810190611406919061218c565b90506304eaf49760e31b6001600160e01b031982160161157c57603254604051631b150b6960e31b81525f916001600160a01b03169063d8a85b489061145090879060040161217a565b6020604051808303815f875af115801561146c573d5f5f3e3d5ffd5b505050506040513d601f19601f820116820180604052508101906114909190611dda565b90505f5b8351811015611575575f8482815181106114b0576114b0611ef7565b602002602001015160200151111561156d578381815181106114d4576114d4611ef7565b602002602001015160200151826001600160a01b03167f9515d20848c62a14062ef5bf27a5ac957b3cf70eb630e86f15db363f410c1e9a60405160405180910390a361156d8285838151811061152c5761152c611ef7565b60200260200101516020015186848151811061154a5761154a611ef7565b60200260200101515f01516001600160a01b031661161b9092919063ffffffff16565b600101611494565b505061048a565b6040516001600160e01b03198216907ff5f32a3c89e78e479c1fa0cc28bfa53d46387fc6bdb93ca76fc24129a37f67b2905f90a250505050565b60606115c383835f61166d565b9392505050565b7ff0c57e16840df040f15088dc2f81fe391c3923bec73e23a9662efc9c229c6a0054600160401b900460ff1661086a57604051631afcd79f60e31b815260040160405180910390fd5b610bcf6115ca565b604080516001600160a01b038416602482015260448082018490528251808303909101815260649091019091526020810180516001600160e01b031663a9059cbb60e01b179052610cbb908490611706565b6060814710156116925760405163cd78605960e01b815230600482015260240161046d565b5f5f856001600160a01b031684866040516116ad9190612164565b5f6040518083038185875af1925050503d805f81146116e7576040519150601f19603f3d011682016040523d82523d5f602084013e6116ec565b606091505b50915091506116fc8683836117d9565b9695505050505050565b5f61175a826040518060400160405280602081526020017f5361666545524332303a206c6f772d6c6576656c2063616c6c206661696c6564815250856001600160a01b03166118359092919063ffffffff16565b905080515f148061177a57508080602001905181019061177a9190612149565b610cbb5760405162461bcd60e51b815260206004820152602a60248201527f5361666545524332303a204552433230206f7065726174696f6e20646964206e6044820152691bdd081cdd58d8d9595960b21b606482015260840161046d565b6060826117ee576117e98261184b565b6115c3565b815115801561180557506001600160a01b0384163b155b1561182e57604051639996b31560e01b81526001600160a01b038516600482015260240161046d565b50806115c3565b606061184384845f85611874565b949350505050565b80511561185b5780518082602001fd5b604051630a12f52160e11b815260040160405180910390fd5b6060824710156118d55760405162461bcd60e51b815260206004820152602660248201527f416464726573733a20696e73756666696369656e742062616c616e636520666f6044820152651c8818d85b1b60d21b606482015260840161046d565b5f5f866001600160a01b031685876040516118f09190612164565b5f6040518083038185875af1925050503d805f811461192a576040519150601f19603f3d011682016040523d82523d5f602084013e61192f565b606091505b50915091506119408783838761194b565b979650505050505050565b606083156119b95782515f036119b2576001600160a01b0385163b6119b25760405162461bcd60e51b815260206004820152601d60248201527f416464726573733a2063616c6c20746f206e6f6e2d636f6e7472616374000000604482015260640161046d565b5081611843565b61184383838151156119ce5781518083602001fd5b8060405162461bcd60e51b815260040161046d919061217a565b6001600160a01b03811681146109d2575f5ffd5b5f5f5f60608486031215611a0e575f5ffd5b8335611a19816119e8565b92506020840135611a29816119e8565b929592945050506040919091013590565b6001600160e01b0319811681146109d2575f5ffd5b5f60208284031215611a5f575f5ffd5b81356115c381611a3a565b80356001600160401b0381168114610ff6575f5ffd5b5f5f60408385031215611a91575f5ffd5b611a9a83611a6a565b91506020830135611aaa816119e8565b809150509250929050565b5f60208284031215611ac5575f5ffd5b6115c382611a6a565b634e487b7160e01b5f52604160045260245ffd5b604080519081016001600160401b0381118282101715611b0457611b04611ace565b60405290565b60405160a081016001600160401b0381118282101715611b0457611b04611ace565b604051601f8201601f191681016001600160401b0381118282101715611b5457611b54611ace565b604052919050565b5f82601f830112611b6b575f5ffd5b81356001600160401b03811115611b8457611b84611ace565b611b9360208260051b01611b2c565b8082825260208201915060208360061b860101925085831115611bb4575f5ffd5b602085015b83811015611bff5760408188031215611bd0575f5ffd5b611bd8611ae2565b8135611be3816119e8565b8152602082810135818301529084529290920191604001611bb9565b5095945050505050565b5f5f5f5f5f5f60a08789031215611c1e575f5ffd5b611c2787611a6a565b95506020870135611c37816119e8565b945060408701356001600160401b03811115611c51575f5ffd5b8701601f81018913611c61575f5ffd5b80356001600160401b03811115611c76575f5ffd5b896020828401011115611c87575f5ffd5b6020919091019450925060608701356001600160401b03811115611ca9575f5ffd5b611cb589828a01611b5c565b9699959850939692959460809093013593505050565b5f60208284031215611cdb575f5ffd5b81356001600160401b03811115611cf0575f5ffd5b820160a081850312156115c3575f5ffd5b80151581146109d2575f5ffd5b5f5f60408385031215611d1f575f5ffd5b611d2883611a6a565b91506020830135611aaa81611d01565b5f60208284031215611d48575f5ffd5b81356115c3816119e8565b5f5f5f60608486031215611d65575f5ffd5b611d6e84611a6a565b92506020840135611d7e816119e8565b91506040840135611d8e81611d01565b809150509250925092565b5f5f60408385031215611daa575f5ffd5b8235611db5816119e8565b946020939093013593505050565b5f60208284031215611dd3575f5ffd5b5051919050565b5f60208284031215611dea575f5ffd5b81516115c3816119e8565b5f81518084528060208401602086015e5f602082860101526020601f19601f83011685010191505092915050565b6001600160401b0383168152604060208201525f825160a06040840152611e4d60e0840182611df5565b90506020840151603f19848303016060850152611e6a8282611df5565b6040860151858203603f190160808701528051808352602091820194505f93509101905b80831015611ec657835180516001600160a01b0316835260209081015190830152604082019150602084019350600183019250611e8e565b5060608601516001600160a01b031660a08601526080860151858203603f190160c087015292506119408184611df5565b634e487b7160e01b5f52603260045260245ffd5b5f8151808452602084019350602083015f5b82811015611f5057815180516001600160a01b031687526020908101518188015260409096019590910190600101611f1d565b5093949350505050565b6001600160a01b03851681526080602082018190525f90611f7d90830186611f0b565b6001600160a01b03949094166040830152506060015292915050565b5f82601f830112611fa8575f5ffd5b81356001600160401b03811115611fc157611fc1611ace565b611fd4601f8201601f1916602001611b2c565b818152846020838601011115611fe8575f5ffd5b816020850160208301375f918101602001919091529392505050565b5f60a08236031215612014575f5ffd5b61201c611b0a565b8235815261202c60208401611a6a565b602082015260408301356001600160401b03811115612049575f5ffd5b61205536828601611f99565b60408301525060608301356001600160401b03811115612073575f5ffd5b61207f36828601611f99565b60608301525060808301356001600160401b0381111561209d575f5ffd5b6120a936828601611b5c565b60808301525092915050565b60208152816020820152818360408301375f818301604090810191909152601f909201601f19160101919050565b604081525f6120f56040830185611df5565b828103602084015261136a8185611f0b565b818103818111156104c057634e487b7160e01b5f52601160045260245ffd5b6001600160a01b03831681526040602082018190525f9061184390830184611f0b565b5f60208284031215612159575f5ffd5b81516115c381611d01565b5f82518060208501845e5f920191825250919050565b602081525f6115c36020830184611df5565b5f6020828403121561219c575f5ffd5b81516115c381611a3a56fea2646970667358221220481404a4f22b9c7c137767a2cc0e04a2aa6adc8d43ddad9eeb83efb5608748fc64736f6c634300081c0033","linkReferences":{"src/utils/FunctionSelectorDecoder.sol":{"FunctionSelectorDecoder":[{"start":5397,"length":20}]}}},"methodIdentifiers":{"allowlistDestinationChain(uint64,bool)":"96d3b83d","allowlistSender(uint64,address,bool)":"f039a009","allowlistSourceChain(uint64,bool)":"db04fa49","allowlistedDestinationChains(uint64)":"75c67c66","allowlistedSenders(uint64,address)":"039faeb0","allowlistedSourceChains(uint64)":"4030d521","ccipReceive((bytes32,uint64,bytes,bytes,(address,uint256)[]))":"85572ffb","getRouter()":"b0f479a1","getSenderHooks()":"e09df825","initialize()":"8129fc1c","owner()":"8da5cb5b","renounceOwnership()":"715018a6","sendMessagePayNative(uint64,address,string,(address,uint256)[],uint256)":"7132732a","senderHooks()":"cf7f2b34","setSenderHooks(address)":"ab2fdedd","supportsInterface(bytes4)":"01ffc9a7","transferOwnership(address)":"f2fde38b","withdraw(address,uint256)":"f3fef3a3","withdrawToken(address,address,uint256)":"01e33667"},"id":202}