{"abi":[{"type":"constructor","inputs":[{"name":"_router","type":"address","internalType":"address"}],"stateMutability":"nonpayable"},{"type":"fallback","stateMutability":"payable"},{"type":"receive","stateMutability":"payable"},{"type":"function","name":"allowlistDestinationChain","inputs":[{"name":"_destinationChainSelector","type":"uint64","internalType":"uint64"},{"name":"allowed","type":"bool","internalType":"bool"}],"outputs":[],"stateMutability":"nonpayable"},{"type":"function","name":"allowlistSender","inputs":[{"name":"_sourceChainSelector","type":"uint64","internalType":"uint64"},{"name":"_sender","type":"address","internalType":"address"},{"name":"allowed","type":"bool","internalType":"bool"}],"outputs":[],"stateMutability":"nonpayable"},{"type":"function","name":"allowlistSourceChain","inputs":[{"name":"_sourceChainSelector","type":"uint64","internalType":"uint64"},{"name":"allowed","type":"bool","internalType":"bool"}],"outputs":[],"stateMutability":"nonpayable"},{"type":"function","name":"allowlistedDestinationChains","inputs":[{"name":"","type":"uint64","internalType":"uint64"}],"outputs":[{"name":"","type":"bool","internalType":"bool"}],"stateMutability":"view"},{"type":"function","name":"allowlistedSenders","inputs":[{"name":"sourceChainSelector","type":"uint64","internalType":"uint64"},{"name":"sender","type":"address","internalType":"address"}],"outputs":[{"name":"","type":"bool","internalType":"bool"}],"stateMutability":"view"},{"type":"function","name":"allowlistedSourceChains","inputs":[{"name":"","type":"uint64","internalType":"uint64"}],"outputs":[{"name":"","type":"bool","internalType":"bool"}],"stateMutability":"view"},{"type":"function","name":"ccipReceive","inputs":[{"name":"message","type":"tuple","internalType":"struct Client.Any2EVMMessage","components":[{"name":"messageId","type":"bytes32","internalType":"bytes32"},{"name":"sourceChainSelector","type":"uint64","internalType":"uint64"},{"name":"sender","type":"bytes","internalType":"bytes"},{"name":"data","type":"bytes","internalType":"bytes"},{"name":"destTokenAmounts","type":"tuple[]","internalType":"struct Client.EVMTokenAmount[]","components":[{"name":"token","type":"address","internalType":"address"},{"name":"amount","type":"uint256","internalType":"uint256"}]}]}],"outputs":[],"stateMutability":"nonpayable"},{"type":"function","name":"getRouter","inputs":[],"outputs":[{"name":"","type":"address","internalType":"address"}],"stateMutability":"view"},{"type":"function","name":"getSenderHooks","inputs":[],"outputs":[{"name":"","type":"address","internalType":"contract ISenderHooks"}],"stateMutability":"view"},{"type":"function","name":"initialize","inputs":[],"outputs":[],"stateMutability":"nonpayable"},{"type":"function","name":"owner","inputs":[],"outputs":[{"name":"","type":"address","internalType":"address"}],"stateMutability":"view"},{"type":"function","name":"renounceOwnership","inputs":[],"outputs":[],"stateMutability":"nonpayable"},{"type":"function","name":"sendMessagePayNative","inputs":[{"name":"_destinationChainSelector","type":"uint64","internalType":"uint64"},{"name":"_receiver","type":"address","internalType":"address"},{"name":"_text","type":"string","internalType":"string"},{"name":"_tokenAmounts","type":"tuple[]","internalType":"struct Client.EVMTokenAmount[]","components":[{"name":"token","type":"address","internalType":"address"},{"name":"amount","type":"uint256","internalType":"uint256"}]},{"name":"_overrideGasLimit","type":"uint256","internalType":"uint256"}],"outputs":[{"name":"messageId","type":"bytes32","internalType":"bytes32"}],"stateMutability":"payable"},{"type":"function","name":"sendMessagePayNative","inputs":[{"name":"_destinationChainSelector","type":"uint64","internalType":"uint64"},{"name":"_receiver","type":"address","internalType":"address"},{"name":"_bytes","type":"bytes","internalType":"bytes"},{"name":"_tokenAmounts","type":"tuple[]","internalType":"struct Client.EVMTokenAmount[]","components":[{"name":"token","type":"address","internalType":"address"},{"name":"amount","type":"uint256","internalType":"uint256"}]},{"name":"_overrideGasLimit","type":"uint256","internalType":"uint256"}],"outputs":[{"name":"messageId","type":"bytes32","internalType":"bytes32"}],"stateMutability":"payable"},{"type":"function","name":"senderHooks","inputs":[],"outputs":[{"name":"","type":"address","internalType":"contract ISenderHooks"}],"stateMutability":"view"},{"type":"function","name":"setSenderHooks","inputs":[{"name":"_senderHooks","type":"address","internalType":"contract ISenderHooks"}],"outputs":[],"stateMutability":"nonpayable"},{"type":"function","name":"supportsInterface","inputs":[{"name":"interfaceId","type":"bytes4","internalType":"bytes4"}],"outputs":[{"name":"","type":"bool","internalType":"bool"}],"stateMutability":"view"},{"type":"function","name":"transferOwnership","inputs":[{"name":"newOwner","type":"address","internalType":"address"}],"outputs":[],"stateMutability":"nonpayable"},{"type":"function","name":"withdraw","inputs":[{"name":"_beneficiary","type":"address","internalType":"address"},{"name":"_amount","type":"uint256","internalType":"uint256"}],"outputs":[],"stateMutability":"nonpayable"},{"type":"function","name":"withdrawToken","inputs":[{"name":"_beneficiary","type":"address","internalType":"address"},{"name":"_token","type":"address","internalType":"address"},{"name":"_amount","type":"uint256","internalType":"uint256"}],"outputs":[],"stateMutability":"nonpayable"},{"type":"event","name":"AllowlistDestinationChain","inputs":[{"name":"destinationChainSelector","type":"uint64","indexed":true,"internalType":"uint64"},{"name":"allowed","type":"bool","indexed":false,"internalType":"bool"}],"anonymous":false},{"type":"event","name":"AllowlistSender","inputs":[{"name":"sourceChainSelector","type":"uint64","indexed":true,"internalType":"uint64"},{"name":"sender","type":"address","indexed":true,"internalType":"address"},{"name":"allowed","type":"bool","indexed":false,"internalType":"bool"}],"anonymous":false},{"type":"event","name":"AllowlistSourceChain","inputs":[{"name":"sourceChainSelector","type":"uint64","indexed":true,"internalType":"uint64"},{"name":"allowed","type":"bool","indexed":false,"internalType":"bool"}],"anonymous":false},{"type":"event","name":"Initialized","inputs":[{"name":"version","type":"uint64","indexed":false,"internalType":"uint64"}],"anonymous":false},{"type":"event","name":"MatchedReceivedFunctionSelector","inputs":[{"name":"","type":"bytes4","indexed":true,"internalType":"bytes4"}],"anonymous":false},{"type":"event","name":"MessageReceived","inputs":[{"name":"messageId","type":"bytes32","indexed":true,"internalType":"bytes32"},{"name":"sourceChainSelector","type":"uint64","indexed":true,"internalType":"uint64"},{"name":"sender","type":"address","indexed":false,"internalType":"address"},{"name":"tokenAmounts","type":"tuple[]","indexed":false,"internalType":"struct Client.EVMTokenAmount[]","components":[{"name":"token","type":"address","internalType":"address"},{"name":"amount","type":"uint256","internalType":"uint256"}]}],"anonymous":false},{"type":"event","name":"MessageSent","inputs":[{"name":"messageId","type":"bytes32","indexed":true,"internalType":"bytes32"},{"name":"destinationChainSelector","type":"uint64","indexed":true,"internalType":"uint64"},{"name":"receiver","type":"address","indexed":false,"internalType":"address"},{"name":"tokenAmounts","type":"tuple[]","indexed":false,"internalType":"struct Client.EVMTokenAmount[]","components":[{"name":"token","type":"address","internalType":"address"},{"name":"amount","type":"uint256","internalType":"uint256"}]},{"name":"feeToken","type":"address","indexed":false,"internalType":"address"},{"name":"fees","type":"uint256","indexed":false,"internalType":"uint256"}],"anonymous":false},{"type":"event","name":"OwnershipTransferred","inputs":[{"name":"previousOwner","type":"address","indexed":true,"internalType":"address"},{"name":"newOwner","type":"address","indexed":true,"internalType":"address"}],"anonymous":false},{"type":"event","name":"SendingFundsToAgentOwner","inputs":[{"name":"","type":"address","indexed":true,"internalType":"address"},{"name":"","type":"uint256","indexed":true,"internalType":"uint256"}],"anonymous":false},{"type":"event","name":"SetSenderHooks","inputs":[{"name":"","type":"address","indexed":true,"internalType":"address"}],"anonymous":false},{"type":"error","name":"AddressEmptyCode","inputs":[{"name":"target","type":"address","internalType":"address"}]},{"type":"error","name":"AddressInsufficientBalance","inputs":[{"name":"account","type":"address","internalType":"address"}]},{"type":"error","name":"CannotSendZeroTokens","inputs":[{"name":"token","type":"address","internalType":"address"}]},{"type":"error","name":"DestinationChainNotAllowed","inputs":[{"name":"destinationChainSelector","type":"uint64","internalType":"uint64"}]},{"type":"error","name":"FailedInnerCall","inputs":[]},{"type":"error","name":"FailedToRefundExcessEth","inputs":[{"name":"sender","type":"address","internalType":"address"},{"name":"refundAmount","type":"uint256","internalType":"uint256"}]},{"type":"error","name":"FailedToWithdrawEth","inputs":[{"name":"owner","type":"address","internalType":"address"},{"name":"target","type":"address","internalType":"address"},{"name":"value","type":"uint256","internalType":"uint256"}]},{"type":"error","name":"InvalidInitialization","inputs":[]},{"type":"error","name":"InvalidReceiverAddress","inputs":[]},{"type":"error","name":"InvalidRouter","inputs":[{"name":"router","type":"address","internalType":"address"}]},{"type":"error","name":"NotEnoughBalance","inputs":[{"name":"currentBalance","type":"uint256","internalType":"uint256"},{"name":"calculatedFees","type":"uint256","internalType":"uint256"}]},{"type":"error","name":"NotEnoughEthGasFees","inputs":[{"name":"sentGasFees","type":"uint256","internalType":"uint256"},{"name":"requiredGasFees","type":"uint256","internalType":"uint256"}]},{"type":"error","name":"NotInitializing","inputs":[]},{"type":"error","name":"OwnableInvalidOwner","inputs":[{"name":"owner","type":"address","internalType":"address"}]},{"type":"error","name":"OwnableUnauthorizedAccount","inputs":[{"name":"account","type":"address","internalType":"address"}]},{"type":"error","name":"SafeERC20FailedOperation","inputs":[{"name":"token","type":"address","internalType":"address"}]},{"type":"error","name":"SenderNotAllowed","inputs":[{"name":"sourceChainSelector","type":"uint64","internalType":"uint64"},{"name":"sender","type":"address","internalType":"address"}]},{"type":"error","name":"SourceChainNotAllowed","inputs":[{"name":"sourceChainSelector","type":"uint64","internalType":"uint64"}]},{"type":"error","name":"WithdrawalExceedsBalance","inputs":[{"name":"amount","type":"uint256","internalType":"uint256"},{"name":"currentBalance","type":"uint256","internalType":"uint256"}]}],"bytecode":{"object":"0x60a060405234801561000f575f5ffd5b506040516124fe3803806124fe83398101604081905261002e9161012a565b80806001600160a01b03811661005d576040516335fdcccd60e21b81525f600482015260240160405180910390fd5b6001600160a01b031660805250610072610078565b50610157565b7ff0c57e16840df040f15088dc2f81fe391c3923bec73e23a9662efc9c229c6a00805468010000000000000000900460ff16156100c85760405163f92ee8a960e01b815260040160405180910390fd5b80546001600160401b03908116146101275780546001600160401b0319166001600160401b0390811782556040519081527fc7f505b2f371ae2175ee4913f4499e1f2633a7b5936321eed1cdaeb6115181d29060200160405180910390a15b50565b5f6020828403121561013a575f5ffd5b81516001600160a01b0381168114610150575f5ffd5b9392505050565b6080516123886101765f395f81816103160152610abf01526123885ff3fe608060405260043610610115575f3560e01c80638da5cb5b11610099578063db04fa4911610060578063db04fa4914610359578063e09df82514610378578063f039a00914610395578063f2fde38b146103b4578063f3fef3a3146103d357005b80638da5cb5b1461027a57806396d3b83d146102ca578063ab2fdedd146102e9578063b0f479a114610308578063cf7f2b341461033a57005b8063715018a6116100dd578063715018a6146101f257806375c67c66146102065780637de7dc7c146102345780638129fc1c1461024757806385572ffb1461025b57005b806301e336671461011757806301ffc9a714610136578063039faeb01461016a5780634030d521146101a35780637132732a146101d1575b005b348015610122575f5ffd5b50610115610131366004611b3a565b6103f2565b348015610141575f5ffd5b50610155610150366004611b8d565b6104ae565b60405190151581526020015b60405180910390f35b348015610175575f5ffd5b50610155610184366004611bbe565b600260209081525f928352604080842090915290825290205460ff1681565b3480156101ae575f5ffd5b506101556101bd366004611bf3565b60016020525f908152604090205460ff1681565b6101e46101df366004611d8b565b6104e4565b604051908152602001610161565b3480156101fd575f5ffd5b50610115610877565b348015610211575f5ffd5b50610155610220366004611bf3565b5f6020819052908152604090205460ff1681565b6101e4610242366004611d8b565b61088a565b348015610252575f5ffd5b506101156109aa565b348015610266575f5ffd5b50610115610275366004611e1f565b610ab4565b348015610285575f5ffd5b507f9016d09d72d40fdae2fd8ceac6b6234c7706214fd39c1cd1e609a0528c199300546001600160a01b03165b6040516001600160a01b039091168152602001610161565b3480156102d5575f5ffd5b506101156102e4366004611e62565b610b13565b3480156102f4575f5ffd5b50610115610303366004611e8c565b610b78565b348015610313575f5ffd5b507f00000000000000000000000000000000000000000000000000000000000000006102b2565b348015610345575f5ffd5b506032546102b2906001600160a01b031681565b348015610364575f5ffd5b50610115610373366004611e62565b610c29565b348015610383575f5ffd5b506032546001600160a01b03166102b2565b3480156103a0575f5ffd5b506101156103af366004611ea7565b610c88565b3480156103bf575f5ffd5b506101156103ce366004611e8c565b610d05565b3480156103de575f5ffd5b506101156103ed366004611eed565b610d3f565b6103fa610dfe565b6040516370a0823160e01b81523060048201525f906001600160a01b038416906370a0823190602401602060405180830381865afa15801561043e573d5f5f3e3d5ffd5b505050506040513d601f19601f820116820180604052508101906104629190611f17565b90508082111561049457604051634314108f60e11b815260048101839052602481018290526044015b60405180910390fd5b6104a86001600160a01b0384168584610e59565b50505050565b5f6001600160e01b031982166385572ffb60e01b14806104de57506001600160e01b031982166301ffc9a760e01b145b92915050565b6001600160401b0386165f90815260208190526040812054879060ff166105295760405163206abad760e01b81526001600160401b038216600482015260240161048b565b866001600160a01b0381166105515760405163502ffa3f60e11b815260040160405180910390fd5b5f610560898989895f8a610eb8565b90505f306001600160a01b031663b0f479a16040518163ffffffff1660e01b8152600401602060405180830381865afa15801561059f573d5f5f3e3d5ffd5b505050506040513d601f19601f820116820180604052508101906105c39190611f2e565b90505f816001600160a01b03166320487ded8d856040518363ffffffff1660e01b81526004016105f4929190611f77565b602060405180830381865afa15801561060f573d5f5f3e3d5ffd5b505050506040513d601f19601f820116820180604052508101906106339190611f17565b90505f61063f826110bf565b90505f5b8951811015610735575f8a828151811061065f5761065f61204b565b6020026020010151602001511180156106785750333014155b156106d6576106d633308c84815181106106945761069461204b565b6020026020010151602001518d85815181106106b2576106b261204b565b60200260200101515f01516001600160a01b0316611139909392919063ffffffff16565b61072d848b83815181106106ec576106ec61204b565b6020026020010151602001518c848151811061070a5761070a61204b565b60200260200101515f01516001600160a01b03166111729092919063ffffffff16565b600101610643565b50826001600160a01b03166396f4e9f9838f876040518463ffffffff1660e01b8152600401610765929190611f77565b60206040518083038185885af1158015610781573d5f5f3e3d5ffd5b50505050506040513d601f19601f820116820180604052508101906107a69190611f17565b96508c6001600160401b0316877ff41bc76bbe18ec95334bdb88f45c769b987464044ead28e11193a766ae8225cb8e8c5f876040516107e894939291906120ae565b60405180910390a38015610867576040515f90339083908381818185875af1925050503d805f8114610835576040519150601f19603f3d011682016040523d82523d5f602084013e61083a565b606091505b505090508061086557604051633e1e7bd760e11b81523360048201526024810183905260440161048b565b505b5050505050509695505050505050565b61087f610dfe565b6108885f611201565b565b6001600160401b0386165f90815260208190526040812054879060ff166108cf5760405163206abad760e01b81526001600160401b038216600482015260240161048b565b866001600160a01b0381166108f75760405163502ffa3f60e11b815260040160405180910390fd5b5f87878080601f0160208091040260200160405190810160405280939291908181526020018383808284375f920182905250604051633899399560e11b815294955093309350637132732a925061095b91508e908e9087908d908d906004016120ed565b6020604051808303815f875af1158015610977573d5f5f3e3d5ffd5b505050506040513d601f19601f8201168201806040525081019061099b9190611f17565b9b9a5050505050505050505050565b7ff0c57e16840df040f15088dc2f81fe391c3923bec73e23a9662efc9c229c6a008054600160401b810460ff1615906001600160401b03165f811580156109ee5750825b90505f826001600160401b03166001148015610a095750303b155b905081158015610a17575080155b15610a355760405163f92ee8a960e01b815260040160405180910390fd5b845467ffffffffffffffff191660011785558315610a5f57845460ff60401b1916600160401b1785555b610a67611271565b8315610aad57845460ff60401b19168555604051600181527fc7f505b2f371ae2175ee4913f4499e1f2633a7b5936321eed1cdaeb6115181d29060200160405180910390a15b5050505050565b336001600160a01b037f00000000000000000000000000000000000000000000000000000000000000001614610aff576040516335fdcccd60e21b815233600482015260240161048b565b610b10610b0b826121af565b61127a565b50565b610b1b610dfe565b6001600160401b0382165f8181526020818152604091829020805460ff191685151590811790915591519182527f79e93956b5c7b59cb1d0aaa5849af9993c5b994c44b148b1944f4e4ecf1e9b8991015b60405180910390a25050565b610b80610dfe565b6001600160a01b038116610be05760405162461bcd60e51b815260206004820152602160248201527f5f73656e646572486f6f6b732063616e6e6f74206265206164647265737328306044820152602960f81b606482015260840161048b565b603280546001600160a01b0319166001600160a01b0383169081179091556040517fa004f5fb3ef43b99d06838916e3792337321b7da5a5222a2611de62fce8e17bf905f90a250565b610c31610dfe565b6001600160401b0382165f81815260016020908152604091829020805460ff191685151590811790915591519182527fa5f858f3914e62a82af355192513d8dbc618ff9815e7213a71930d8996a3cb829101610b6c565b610c90610dfe565b6001600160401b0383165f8181526002602090815260408083206001600160a01b03871680855290835292819020805460ff191686151590811790915590519081529192917f7341e817a8458e8902ebedbcd9e82db8299e43de630c89ade217662e6cafe906910160405180910390a3505050565b610d0d610dfe565b6001600160a01b038116610d3657604051631e4fbdf760e01b81525f600482015260240161048b565b610b1081611201565b610d47610dfe565b47811115610d7157604051634314108f60e11b81526004810182905247602482015260440161048b565b5f826001600160a01b0316826040515f6040518083038185875af1925050503d805f8114610dba576040519150601f19603f3d011682016040523d82523d5f602084013e610dbf565b606091505b5050905080610df957604051639d11f56360e01b81523360048201526001600160a01b03841660248201526044810183905260640161048b565b505050565b33610e307f9016d09d72d40fdae2fd8ceac6b6234c7706214fd39c1cd1e609a0528c199300546001600160a01b031690565b6001600160a01b0316146108885760405163118cdaa760e01b815233600482015260240161048b565b6040516001600160a01b03838116602483015260448201839052610df991859182169063a9059cbb906064015b604051602081830303815290604052915060e01b6020820180516001600160e01b0383818316178352505050506113af565b610ef26040518060a001604052806060815260200160608152602001606081526020015f6001600160a01b03168152602001606081525090565b835f5b8151811015610f6d575f828281518110610f1157610f1161204b565b60200260200101516020015111610f6557818181518110610f3457610f3461204b565b60209081029190910101515160405163ce9a320f60e01b81526001600160a01b03909116600482015260240161048b565b600101610ef5565b505f8787604051602001610f82929190612260565b60408051601f1981840301815290829052603254631e3b235760e11b83529092505f916001600160a01b0390911690633c7646ae90610fc79085908b9060040161228e565b6020604051808303815f875af1158015610fe3573d5f5f3e3d5ffd5b505050506040513d601f19601f820116820180604052508101906110079190611f17565b905084156110125750835b6040805160a081019091526001600160a01b038b1660c08201528060e081016040516020818303038152906040528152602001838152602001888152602001876001600160a01b031681526020016110af60405180602001604052808581525060408051915160248084019190915281518084039091018152604490920190526020810180516001600160e01b03166397a657c960e01b17905290565b90529a9950505050505050505050565b5f33301461110a57348211156110f1576040516319c7b56f60e31b81523460048201526024810183905260440161048b565b81341115611103576104de82346122b2565b505f919050565b4782111561110357604051634787a10360e11b81524760048201526024810183905260440161048b565b919050565b6040516001600160a01b0384811660248301528381166044830152606482018390526104a89186918216906323b872dd90608401610e86565b604080516001600160a01b038416602482015260448082018490528251808303909101815260649091019091526020810180516001600160e01b031663095ea7b360e01b1790526111c38482611410565b6104a8576040516001600160a01b0384811660248301525f60448301526111f791869182169063095ea7b390606401610e86565b6104a884826113af565b7f9016d09d72d40fdae2fd8ceac6b6234c7706214fd39c1cd1e609a0528c19930080546001600160a01b031981166001600160a01b03848116918217845560405192169182907f8be0079c531659141344cd1fd0a4f28419497f9722a3daafe3b4186f6b6457e0905f90a3505050565b610888336114b1565b806020015181604001518060200190518101906112979190611f2e565b6001600160401b0382165f9081526001602052604090205460ff166112da5760405163042784cf60e31b81526001600160401b038316600482015260240161048b565b6001600160401b0382165f9081526002602090815260408083206001600160a01b038516845290915290205460ff166113405760405163046ea56b60e51b81526001600160401b03831660048201526001600160a01b038216602482015260440161048b565b82602001516001600160401b0316835f01517f73adea18308efe766f16a2cfd3ff8324f62191ae6a6e387075b52e0fae1214e8856040015180602001905181019061138b9190611f2e565b866080015160405161139e9291906122d1565b60405180910390a3610df9836114c2565b5f6113c36001600160a01b038416836116f4565b905080515f141580156113e75750808060200190518101906113e591906122f4565b155b15610df957604051635274afe760e01b81526001600160a01b038416600482015260240161048b565b5f5f5f846001600160a01b03168460405161142b919061230f565b5f604051808303815f865af19150503d805f8114611464576040519150601f19603f3d011682016040523d82523d5f602084013e611469565b606091505b509150915081801561149357508051158061149357508080602001905181019061149391906122f4565b80156114a857505f856001600160a01b03163b115b95945050505050565b6114b9611708565b610b1081611751565b6060810151608082015160405163182d14b160e31b81525f9073__$c09305f6e49770e0e311136a0d66fc48c7$__9063c168a58890611505908690600401612325565b602060405180830381865af4158015611520573d5f5f3e3d5ffd5b505050506040513d601f19601f820116820180604052508101906115449190612337565b90506304eaf49760e31b6001600160e01b03198216016116ba57603254604051631b150b6960e31b81525f916001600160a01b03169063d8a85b489061158e908790600401612325565b6020604051808303815f875af11580156115aa573d5f5f3e3d5ffd5b505050506040513d601f19601f820116820180604052508101906115ce9190611f2e565b90505f5b83518110156116b3575f8482815181106115ee576115ee61204b565b60200260200101516020015111156116ab578381815181106116125761161261204b565b602002602001015160200151826001600160a01b03167f9515d20848c62a14062ef5bf27a5ac957b3cf70eb630e86f15db363f410c1e9a60405160405180910390a36116ab8285838151811061166a5761166a61204b565b6020026020010151602001518684815181106116885761168861204b565b60200260200101515f01516001600160a01b03166117599092919063ffffffff16565b6001016115d2565b50506104a8565b6040516001600160e01b03198216907ff5f32a3c89e78e479c1fa0cc28bfa53d46387fc6bdb93ca76fc24129a37f67b2905f90a250505050565b606061170183835f6117ab565b9392505050565b7ff0c57e16840df040f15088dc2f81fe391c3923bec73e23a9662efc9c229c6a0054600160401b900460ff1661088857604051631afcd79f60e31b815260040160405180910390fd5b610d0d611708565b604080516001600160a01b038416602482015260448082018490528251808303909101815260649091019091526020810180516001600160e01b031663a9059cbb60e01b179052610df9908490611844565b6060814710156117d05760405163cd78605960e01b815230600482015260240161048b565b5f5f856001600160a01b031684866040516117eb919061230f565b5f6040518083038185875af1925050503d805f8114611825576040519150601f19603f3d011682016040523d82523d5f602084013e61182a565b606091505b509150915061183a868383611917565b9695505050505050565b5f611898826040518060400160405280602081526020017f5361666545524332303a206c6f772d6c6576656c2063616c6c206661696c6564815250856001600160a01b03166119739092919063ffffffff16565b905080515f14806118b85750808060200190518101906118b891906122f4565b610df95760405162461bcd60e51b815260206004820152602a60248201527f5361666545524332303a204552433230206f7065726174696f6e20646964206e6044820152691bdd081cdd58d8d9595960b21b606482015260840161048b565b60608261192c5761192782611989565b611701565b815115801561194357506001600160a01b0384163b155b1561196c57604051639996b31560e01b81526001600160a01b038516600482015260240161048b565b5080611701565b606061198184845f856119b2565b949350505050565b8051156119995780518082602001fd5b604051630a12f52160e11b815260040160405180910390fd5b606082471015611a135760405162461bcd60e51b815260206004820152602660248201527f416464726573733a20696e73756666696369656e742062616c616e636520666f6044820152651c8818d85b1b60d21b606482015260840161048b565b5f5f866001600160a01b03168587604051611a2e919061230f565b5f6040518083038185875af1925050503d805f8114611a68576040519150601f19603f3d011682016040523d82523d5f602084013e611a6d565b606091505b5091509150611a7e87838387611a89565b979650505050505050565b60608315611af75782515f03611af0576001600160a01b0385163b611af05760405162461bcd60e51b815260206004820152601d60248201527f416464726573733a2063616c6c20746f206e6f6e2d636f6e7472616374000000604482015260640161048b565b5081611981565b6119818383815115611b0c5781518083602001fd5b8060405162461bcd60e51b815260040161048b9190612325565b6001600160a01b0381168114610b10575f5ffd5b5f5f5f60608486031215611b4c575f5ffd5b8335611b5781611b26565b92506020840135611b6781611b26565b929592945050506040919091013590565b6001600160e01b031981168114610b10575f5ffd5b5f60208284031215611b9d575f5ffd5b813561170181611b78565b80356001600160401b0381168114611134575f5ffd5b5f5f60408385031215611bcf575f5ffd5b611bd883611ba8565b91506020830135611be881611b26565b809150509250929050565b5f60208284031215611c03575f5ffd5b61170182611ba8565b5f5f83601f840112611c1c575f5ffd5b5081356001600160401b03811115611c32575f5ffd5b602083019150836020828501011115611c49575f5ffd5b9250929050565b634e487b7160e01b5f52604160045260245ffd5b604080519081016001600160401b0381118282101715611c8657611c86611c50565b60405290565b60405160a081016001600160401b0381118282101715611c8657611c86611c50565b604051601f8201601f191681016001600160401b0381118282101715611cd657611cd6611c50565b604052919050565b5f82601f830112611ced575f5ffd5b81356001600160401b03811115611d0657611d06611c50565b611d1560208260051b01611cae565b8082825260208201915060208360061b860101925085831115611d36575f5ffd5b602085015b83811015611d815760408188031215611d52575f5ffd5b611d5a611c64565b8135611d6581611b26565b8152602082810135818301529084529290920191604001611d3b565b5095945050505050565b5f5f5f5f5f5f60a08789031215611da0575f5ffd5b611da987611ba8565b95506020870135611db981611b26565b945060408701356001600160401b03811115611dd3575f5ffd5b611ddf89828a01611c0c565b90955093505060608701356001600160401b03811115611dfd575f5ffd5b611e0989828a01611cde565b9699959850939692959460809093013593505050565b5f60208284031215611e2f575f5ffd5b81356001600160401b03811115611e44575f5ffd5b820160a08185031215611701575f5ffd5b8015158114610b10575f5ffd5b5f5f60408385031215611e73575f5ffd5b611e7c83611ba8565b91506020830135611be881611e55565b5f60208284031215611e9c575f5ffd5b813561170181611b26565b5f5f5f60608486031215611eb9575f5ffd5b611ec284611ba8565b92506020840135611ed281611b26565b91506040840135611ee281611e55565b809150509250925092565b5f5f60408385031215611efe575f5ffd5b8235611f0981611b26565b946020939093013593505050565b5f60208284031215611f27575f5ffd5b5051919050565b5f60208284031215611f3e575f5ffd5b815161170181611b26565b5f81518084528060208401602086015e5f602082860101526020601f19601f83011685010191505092915050565b6001600160401b0383168152604060208201525f825160a06040840152611fa160e0840182611f49565b90506020840151603f19848303016060850152611fbe8282611f49565b6040860151858203603f190160808701528051808352602091820194505f93509101905b8083101561201a57835180516001600160a01b0316835260209081015190830152604082019150602084019350600183019250611fe2565b5060608601516001600160a01b031660a08601526080860151858203603f190160c08701529250611a7e8184611f49565b634e487b7160e01b5f52603260045260245ffd5b5f8151808452602084019350602083015f5b828110156120a457815180516001600160a01b031687526020908101518188015260409096019590910190600101612071565b5093949350505050565b6001600160a01b03851681526080602082018190525f906120d19083018661205f565b6001600160a01b03949094166040830152506060015292915050565b6001600160401b03861681526001600160a01b038516602082015260a0604082018190525f9061211f90830186611f49565b8281036060840152612131818661205f565b9150508260808301529695505050505050565b5f82601f830112612153575f5ffd5b81356001600160401b0381111561216c5761216c611c50565b61217f601f8201601f1916602001611cae565b818152846020838601011115612193575f5ffd5b816020850160208301375f918101602001919091529392505050565b5f60a082360312156121bf575f5ffd5b6121c7611c8c565b823581526121d760208401611ba8565b602082015260408301356001600160401b038111156121f4575f5ffd5b61220036828601612144565b60408301525060608301356001600160401b0381111561221e575f5ffd5b61222a36828601612144565b60608301525060808301356001600160401b03811115612248575f5ffd5b61225436828601611cde565b60808301525092915050565b60208152816020820152818360408301375f818301604090810191909152601f909201601f19160101919050565b604081525f6122a06040830185611f49565b82810360208401526114a8818561205f565b818103818111156104de57634e487b7160e01b5f52601160045260245ffd5b6001600160a01b03831681526040602082018190525f906119819083018461205f565b5f60208284031215612304575f5ffd5b815161170181611e55565b5f82518060208501845e5f920191825250919050565b602081525f6117016020830184611f49565b5f60208284031215612347575f5ffd5b815161170181611b7856fea264697066735822122052bd9ec37fe59b2d573c8c8a9c0cfedf56e85485e5dae681fdf9f12643903d9364736f6c634300081c0033","linkReferences":{"src/utils/FunctionSelectorDecoder.sol":{"FunctionSelectorDecoder":[{"start":5715,"length":20}]}}},"methodIdentifiers":{"allowlistDestinationChain(uint64,bool)":"96d3b83d","allowlistSender(uint64,address,bool)":"f039a009","allowlistSourceChain(uint64,bool)":"db04fa49","allowlistedDestinationChains(uint64)":"75c67c66","allowlistedSenders(uint64,address)":"039faeb0","allowlistedSourceChains(uint64)":"4030d521","ccipReceive((bytes32,uint64,bytes,bytes,(address,uint256)[]))":"85572ffb","getRouter()":"b0f479a1","getSenderHooks()":"e09df825","initialize()":"8129fc1c","owner()":"8da5cb5b","renounceOwnership()":"715018a6","sendMessagePayNative(uint64,address,bytes,(address,uint256)[],uint256)":"7de7dc7c","sendMessagePayNative(uint64,address,string,(address,uint256)[],uint256)":"7132732a","senderHooks()":"cf7f2b34","setSenderHooks(address)":"ab2fdedd","supportsInterface(bytes4)":"01ffc9a7","transferOwnership(address)":"f2fde38b","withdraw(address,uint256)":"f3fef3a3","withdrawToken(address,address,uint256)":"01e33667"},"id":202}